{
  "_format": "hh-sol-artifact-1",
  "contractName": "AutographRequestContract",
  "sourceName": "contracts/AutographRequestContract.sol",
  "abi": [
    {
      "anonymous": false,
      "inputs": [
        {
          "indexed": false,
          "internalType": "uint256",
          "name": "feePercent",
          "type": "uint256"
        }
      ],
      "name": "FeePercentChanged",
      "type": "event"
    },
    {
      "anonymous": false,
      "inputs": [
        {
          "indexed": true,
          "internalType": "address",
          "name": "previousOwner",
          "type": "address"
        },
        {
          "indexed": true,
          "internalType": "address",
          "name": "newOwner",
          "type": "address"
        }
      ],
      "name": "OwnershipTransferred",
      "type": "event"
    },
    {
      "anonymous": false,
      "inputs": [
        {
          "indexed": false,
          "internalType": "uint256",
          "name": "id",
          "type": "uint256"
        },
        {
          "indexed": true,
          "internalType": "address",
          "name": "from",
          "type": "address"
        },
        {
          "indexed": true,
          "internalType": "address",
          "name": "to",
          "type": "address"
        },
        {
          "indexed": false,
          "internalType": "uint256",
          "name": "price",
          "type": "uint256"
        },
        {
          "indexed": false,
          "internalType": "uint256",
          "name": "responseTime",
          "type": "uint256"
        },
        {
          "indexed": false,
          "internalType": "uint256",
          "name": "created",
          "type": "uint256"
        }
      ],
      "name": "RequestCreated",
      "type": "event"
    },
    {
      "anonymous": false,
      "inputs": [
        {
          "indexed": false,
          "internalType": "uint256",
          "name": "id",
          "type": "uint256"
        },
        {
          "indexed": true,
          "internalType": "address",
          "name": "from",
          "type": "address"
        },
        {
          "indexed": true,
          "internalType": "address",
          "name": "to",
          "type": "address"
        },
        {
          "indexed": false,
          "internalType": "uint256",
          "name": "price",
          "type": "uint256"
        },
        {
          "indexed": false,
          "internalType": "uint256",
          "name": "responseTime",
          "type": "uint256"
        },
        {
          "indexed": false,
          "internalType": "uint256",
          "name": "created",
          "type": "uint256"
        }
      ],
      "name": "RequestDeleted",
      "type": "event"
    },
    {
      "anonymous": false,
      "inputs": [
        {
          "indexed": false,
          "internalType": "uint256",
          "name": "id",
          "type": "uint256"
        },
        {
          "indexed": true,
          "internalType": "address",
          "name": "from",
          "type": "address"
        },
        {
          "indexed": true,
          "internalType": "address",
          "name": "to",
          "type": "address"
        },
        {
          "indexed": false,
          "internalType": "uint256",
          "name": "price",
          "type": "uint256"
        },
        {
          "indexed": false,
          "internalType": "uint256",
          "name": "responseTime",
          "type": "uint256"
        },
        {
          "indexed": false,
          "internalType": "uint256",
          "name": "created",
          "type": "uint256"
        },
        {
          "indexed": false,
          "internalType": "string",
          "name": "imageURI",
          "type": "string"
        },
        {
          "indexed": false,
          "internalType": "string",
          "name": "metadataURI",
          "type": "string"
        }
      ],
      "name": "RequestSigned",
      "type": "event"
    },
    {
      "inputs": [
        {
          "internalType": "address",
          "name": "to",
          "type": "address"
        }
      ],
      "name": "createRequest",
      "outputs": [],
      "stateMutability": "payable",
      "type": "function"
    },
    {
      "inputs": [
        {
          "internalType": "uint256",
          "name": "id",
          "type": "uint256"
        }
      ],
      "name": "deleteRequest",
      "outputs": [],
      "stateMutability": "nonpayable",
      "type": "function"
    },
    {
      "inputs": [],
      "name": "getBalance",
      "outputs": [
        {
          "internalType": "uint256",
          "name": "",
          "type": "uint256"
        }
      ],
      "stateMutability": "view",
      "type": "function"
    },
    {
      "inputs": [],
      "name": "getFeePercent",
      "outputs": [
        {
          "internalType": "uint256",
          "name": "",
          "type": "uint256"
        }
      ],
      "stateMutability": "view",
      "type": "function"
    },
    {
      "inputs": [],
      "name": "getNumberOfPendingRequests",
      "outputs": [
        {
          "internalType": "uint256",
          "name": "",
          "type": "uint256"
        }
      ],
      "stateMutability": "view",
      "type": "function"
    },
    {
      "inputs": [],
      "name": "getTotalSupply",
      "outputs": [
        {
          "internalType": "uint256",
          "name": "",
          "type": "uint256"
        }
      ],
      "stateMutability": "view",
      "type": "function"
    },
    {
      "inputs": [
        {
          "internalType": "address",
          "name": "_celebrityContract",
          "type": "address"
        },
        {
          "internalType": "address",
          "name": "_autographContract",
          "type": "address"
        }
      ],
      "name": "initialize",
      "outputs": [],
      "stateMutability": "nonpayable",
      "type": "function"
    },
    {
      "inputs": [],
      "name": "owner",
      "outputs": [
        {
          "internalType": "address",
          "name": "",
          "type": "address"
        }
      ],
      "stateMutability": "view",
      "type": "function"
    },
    {
      "inputs": [],
      "name": "renounceOwnership",
      "outputs": [],
      "stateMutability": "nonpayable",
      "type": "function"
    },
    {
      "inputs": [
        {
          "internalType": "uint256",
          "name": "",
          "type": "uint256"
        }
      ],
      "name": "requests",
      "outputs": [
        {
          "internalType": "address",
          "name": "from",
          "type": "address"
        },
        {
          "internalType": "address",
          "name": "to",
          "type": "address"
        },
        {
          "internalType": "uint256",
          "name": "price",
          "type": "uint256"
        },
        {
          "internalType": "uint256",
          "name": "responseTime",
          "type": "uint256"
        },
        {
          "internalType": "uint256",
          "name": "created",
          "type": "uint256"
        }
      ],
      "stateMutability": "view",
      "type": "function"
    },
    {
      "inputs": [
        {
          "internalType": "uint256",
          "name": "_feePercent",
          "type": "uint256"
        }
      ],
      "name": "setFeePercent",
      "outputs": [],
      "stateMutability": "nonpayable",
      "type": "function"
    },
    {
      "inputs": [
        {
          "internalType": "uint256",
          "name": "id",
          "type": "uint256"
        },
        {
          "internalType": "string",
          "name": "imageURI",
          "type": "string"
        },
        {
          "internalType": "string",
          "name": "metadataURI",
          "type": "string"
        }
      ],
      "name": "signRequest",
      "outputs": [],
      "stateMutability": "nonpayable",
      "type": "function"
    },
    {
      "inputs": [
        {
          "internalType": "address",
          "name": "newOwner",
          "type": "address"
        }
      ],
      "name": "transferOwnership",
      "outputs": [],
      "stateMutability": "nonpayable",
      "type": "function"
    },
    {
      "inputs": [],
      "name": "version",
      "outputs": [
        {
          "internalType": "uint256",
          "name": "",
          "type": "uint256"
        }
      ],
      "stateMutability": "view",
      "type": "function"
    }
  ],
  "bytecode": "0x608060405234801561001057600080fd5b5061210b806100206000396000f3fe6080604052600436106100dd5760003560e01c806381d12c581161007f578063c4e41b2211610059578063c4e41b22146104ab578063e9a21bcd146104d6578063ed3caf2214610511578063f2fde38b1461053c576100dd565b806381d12c58146103a85780638da5cb5b1461043f578063be74264d14610480576100dd565b8063485cc955116100bb578063485cc955146102ba57806354fd4d501461032b578063715018a6146103565780637ce3489b1461036d576100dd565b806312065fe0146100e257806314ee93a21461010d5780632686694f14610151575b600080fd5b3480156100ee57600080fd5b506100f761058d565b6040518082815260200191505060405180910390f35b61014f6004803603602081101561012357600080fd5b81019080803573ffffffffffffffffffffffffffffffffffffffff169060200190929190505050610595565b005b34801561015d57600080fd5b506102b86004803603606081101561017457600080fd5b81019080803590602001909291908035906020019064010000000081111561019b57600080fd5b8201836020820111156101ad57600080fd5b803590602001918460018302840111640100000000831117156101cf57600080fd5b91908080601f016020809104026020016040519081016040528093929190818152602001838380828437600081840152601f19601f8201169050808301925050505050505091929192908035906020019064010000000081111561023257600080fd5b82018360208201111561024457600080fd5b8035906020019184600183028401116401000000008311171561026657600080fd5b91908080601f016020809104026020016040519081016040528093929190818152602001838380828437600081840152601f19601f820116905080830192505050505050509192919290505050610986565b005b3480156102c657600080fd5b50610329600480360360408110156102dd57600080fd5b81019080803573ffffffffffffffffffffffffffffffffffffffff169060200190929190803573ffffffffffffffffffffffffffffffffffffffff169060200190929190505050611147565b005b34801561033757600080fd5b506103406112e1565b6040518082815260200191505060405180910390f35b34801561036257600080fd5b5061036b6112e7565b005b34801561037957600080fd5b506103a66004803603602081101561039057600080fd5b8101908080359060200190929190505050611457565b005b3480156103b457600080fd5b506103e1600480360360208110156103cb57600080fd5b8101908080359060200190929190505050611549565b604051808673ffffffffffffffffffffffffffffffffffffffff1681526020018573ffffffffffffffffffffffffffffffffffffffff1681526020018481526020018381526020018281526020019550505050505060405180910390f35b34801561044b57600080fd5b506104546115cc565b604051808273ffffffffffffffffffffffffffffffffffffffff16815260200191505060405180910390f35b34801561048c57600080fd5b506104956115f6565b6040518082815260200191505060405180910390f35b3480156104b757600080fd5b506104c0611600565b6040518082815260200191505060405180910390f35b3480156104e257600080fd5b5061050f600480360360208110156104f957600080fd5b810190808035906020019092919050505061160d565b005b34801561051d57600080fd5b5061052661196c565b6040518082815260200191505060405180910390f35b34801561054857600080fd5b5061058b6004803603602081101561055f57600080fd5b81019080803573ffffffffffffffffffffffffffffffffffffffff169060200190929190505050611976565b005b600047905090565b600080606560009054906101000a900473ffffffffffffffffffffffffffffffffffffffff1673ffffffffffffffffffffffffffffffffffffffff1663509d202c846040518263ffffffff1660e01b8152600401808273ffffffffffffffffffffffffffffffffffffffff16815260200191505060006040518083038186803b15801561062157600080fd5b505afa158015610635573d6000803e3d6000fd5b505050506040513d6000823e3d601f19601f82011682018060405250608081101561065f57600080fd5b810190808051604051939291908464010000000082111561067f57600080fd5b8382019150602082018581111561069557600080fd5b82518660018202830111640100000000821117156106b257600080fd5b8083526020830192505050908051906020019080838360005b838110156106e65780820151818401526020810190506106cb565b50505050905090810190601f1680156107135780820380516001836020036101000a031916815260200191505b50604052602001805190602001909291908051906020019092919080519060200190929190505050509250925050813414610799576040517f08c379a000000000000000000000000000000000000000000000000000000000815260040180806020018281038252602e815260200180612080602e913960400191505060405180910390fd5b6107a1611f4a565b6040518060a001604052803373ffffffffffffffffffffffffffffffffffffffff1681526020018573ffffffffffffffffffffffffffffffffffffffff168152602001848152602001838152602001428152509050606781908060018154018082558091505060019003906000526020600020906005020160009091909190915060008201518160000160006101000a81548173ffffffffffffffffffffffffffffffffffffffff021916908373ffffffffffffffffffffffffffffffffffffffff16021790555060208201518160010160006101000a81548173ffffffffffffffffffffffffffffffffffffffff021916908373ffffffffffffffffffffffffffffffffffffffff1602179055506040820151816002015560608201518160030155608082015181600401555050600060016067805490500390506001606860008282540192505081905550816020015173ffffffffffffffffffffffffffffffffffffffff16826000015173ffffffffffffffffffffffffffffffffffffffff167f5b55842672aaa440d337fd65bb0154c3a00b886297daf13f4f92aea626a9300b838560400151866060015187608001516040518085815260200184815260200183815260200182815260200194505050505060405180910390a35050505050565b61098e611f4a565b6067848154811061099b57fe5b90600052602060002090600502016040518060a00160405290816000820160009054906101000a900473ffffffffffffffffffffffffffffffffffffffff1673ffffffffffffffffffffffffffffffffffffffff1673ffffffffffffffffffffffffffffffffffffffff1681526020016001820160009054906101000a900473ffffffffffffffffffffffffffffffffffffffff1673ffffffffffffffffffffffffffffffffffffffff1673ffffffffffffffffffffffffffffffffffffffff168152602001600282015481526020016003820154815260200160048201548152505090503373ffffffffffffffffffffffffffffffffffffffff16816020015173ffffffffffffffffffffffffffffffffffffffff1614610b08576040517f08c379a00000000000000000000000000000000000000000000000000000000081526004018080602001828103825260288152602001806120ae6028913960400191505060405180910390fd5b8060400151471015610b65576040517f08c379a000000000000000000000000000000000000000000000000000000000815260040180806020018281038252602c815260200180611fa6602c913960400191505060405180910390fd5b6000606660009054906101000a900473ffffffffffffffffffffffffffffffffffffffff1673ffffffffffffffffffffffffffffffffffffffff16634cace35983600001513387876040518563ffffffff1660e01b8152600401808573ffffffffffffffffffffffffffffffffffffffff1681526020018473ffffffffffffffffffffffffffffffffffffffff1681526020018060200180602001838103835285818151815260200191508051906020019080838360005b83811015610c38578082015181840152602081019050610c1d565b50505050905090810190601f168015610c655780820380516001836020036101000a031916815260200191505b50838103825284818151815260200191508051906020019080838360005b83811015610c9e578082015181840152602081019050610c83565b50505050905090810190601f168015610ccb5780820380516001836020036101000a031916815260200191505b509650505050505050602060405180830381600087803b158015610cee57600080fd5b505af1158015610d02573d6000803e3d6000fd5b505050506040513d6020811015610d1857600080fd5b81019080805190602001909291905050509050816000015173ffffffffffffffffffffffffffffffffffffffff16606660009054906101000a900473ffffffffffffffffffffffffffffffffffffffff1673ffffffffffffffffffffffffffffffffffffffff16636352211e836040518263ffffffff1660e01b81526004018082815260200191505060206040518083038186803b158015610db957600080fd5b505afa158015610dcd573d6000803e3d6000fd5b505050506040513d6020811015610de357600080fd5b810190808051906020019092919050505073ffffffffffffffffffffffffffffffffffffffff1614610e7d576040517f08c379a000000000000000000000000000000000000000000000000000000000815260040180806020018281038252601f8152602001807f546f6b656e20776173206e6f74206372656174656420636f72726563746c790081525060200191505060405180910390fd5b6000826020015190506000610e906115cc565b90506000606460695486604001510281610ea657fe5b0490508173ffffffffffffffffffffffffffffffffffffffff166108fc829081150290604051600060405180830381858888f19350505050158015610eef573d6000803e3d6000fd5b508273ffffffffffffffffffffffffffffffffffffffff166108fc828760400151039081150290604051600060405180830381858888f19350505050158015610f3c573d6000803e3d6000fd5b5060678881548110610f4a57fe5b9060005260206000209060050201600080820160006101000a81549073ffffffffffffffffffffffffffffffffffffffff02191690556001820160006101000a81549073ffffffffffffffffffffffffffffffffffffffff021916905560028201600090556003820160009055600482016000905550506001606860008282540392505081905550846020015173ffffffffffffffffffffffffffffffffffffffff16856000015173ffffffffffffffffffffffffffffffffffffffff167fd5f87625b2215dc8c8ef503c4e0a6ac727680967de19505147772caf1e8222e88a886040015189606001518a608001518d8d604051808781526020018681526020018581526020018481526020018060200180602001838103835285818151815260200191508051906020019080838360005b8381101561109757808201518184015260208101905061107c565b50505050905090810190601f1680156110c45780820380516001836020036101000a031916815260200191505b50838103825284818151815260200191508051906020019080838360005b838110156110fd5780820151818401526020810190506110e2565b50505050905090810190601f16801561112a5780820380516001836020036101000a031916815260200191505b509850505050505050505060405180910390a35050505050505050565b600060019054906101000a900460ff16806111665750611165611b6b565b5b8061117c575060008054906101000a900460ff16155b6111d1576040517f08c379a000000000000000000000000000000000000000000000000000000000815260040180806020018281038252602e81526020018061201c602e913960400191505060405180910390fd5b60008060019054906101000a900460ff161590508015611221576001600060016101000a81548160ff02191690831515021790555060016000806101000a81548160ff0219169083151502179055505b611229611b7c565b82606560006101000a81548173ffffffffffffffffffffffffffffffffffffffff021916908373ffffffffffffffffffffffffffffffffffffffff16021790555081606660006101000a81548173ffffffffffffffffffffffffffffffffffffffff021916908373ffffffffffffffffffffffffffffffffffffffff160217905550600a6069819055506001606a8190555080156112dc5760008060016101000a81548160ff0219169083151502179055505b505050565b606a5481565b6112ef611c8a565b73ffffffffffffffffffffffffffffffffffffffff1661130d6115cc565b73ffffffffffffffffffffffffffffffffffffffff1614611396576040517f08c379a00000000000000000000000000000000000000000000000000000000081526004018080602001828103825260208152602001807f4f776e61626c653a2063616c6c6572206973206e6f7420746865206f776e657281525060200191505060405180910390fd5b600073ffffffffffffffffffffffffffffffffffffffff16603360009054906101000a900473ffffffffffffffffffffffffffffffffffffffff1673ffffffffffffffffffffffffffffffffffffffff167f8be0079c531659141344cd1fd0a4f28419497f9722a3daafe3b4186f6b6457e060405160405180910390a36000603360006101000a81548173ffffffffffffffffffffffffffffffffffffffff021916908373ffffffffffffffffffffffffffffffffffffffff160217905550565b61145f611c8a565b73ffffffffffffffffffffffffffffffffffffffff1661147d6115cc565b73ffffffffffffffffffffffffffffffffffffffff1614611506576040517f08c379a00000000000000000000000000000000000000000000000000000000081526004018080602001828103825260208152602001807f4f776e61626c653a2063616c6c6572206973206e6f7420746865206f776e657281525060200191505060405180910390fd5b806069819055507f91955c12515f4eb8f1ff79df82d1933ff11b6d3b9a3019c6568840616ec36a746069546040518082815260200191505060405180910390a150565b6067818154811061155657fe5b90600052602060002090600502016000915090508060000160009054906101000a900473ffffffffffffffffffffffffffffffffffffffff16908060010160009054906101000a900473ffffffffffffffffffffffffffffffffffffffff16908060020154908060030154908060040154905085565b6000603360009054906101000a900473ffffffffffffffffffffffffffffffffffffffff16905090565b6000606954905090565b6000606780549050905090565b611615611f4a565b6067828154811061162257fe5b90600052602060002090600502016040518060a00160405290816000820160009054906101000a900473ffffffffffffffffffffffffffffffffffffffff1673ffffffffffffffffffffffffffffffffffffffff1673ffffffffffffffffffffffffffffffffffffffff1681526020016001820160009054906101000a900473ffffffffffffffffffffffffffffffffffffffff1673ffffffffffffffffffffffffffffffffffffffff1673ffffffffffffffffffffffffffffffffffffffff168152602001600282015481526020016003820154815260200160048201548152505090503373ffffffffffffffffffffffffffffffffffffffff16816000015173ffffffffffffffffffffffffffffffffffffffff161461178f576040517f08c379a0000000000000000000000000000000000000000000000000000000008152600401808060200182810382526024815260200180611ff86024913960400191505060405180910390fd5b620151808160600151028160800151014210156117f7576040517f08c379a000000000000000000000000000000000000000000000000000000000815260040180806020018281038252603681526020018061204a6036913960400191505060405180910390fd5b3373ffffffffffffffffffffffffffffffffffffffff166108fc82604001519081150290604051600060405180830381858888f19350505050158015611841573d6000803e3d6000fd5b506067828154811061184f57fe5b9060005260206000209060050201600080820160006101000a81549073ffffffffffffffffffffffffffffffffffffffff02191690556001820160006101000a81549073ffffffffffffffffffffffffffffffffffffffff021916905560028201600090556003820160009055600482016000905550506001606860008282540392505081905550806020015173ffffffffffffffffffffffffffffffffffffffff16816000015173ffffffffffffffffffffffffffffffffffffffff167fa59556698ed1cec4208c027a72f38f8304fda166004a4b213383a23999a0cac4848460400151856060015186608001516040518085815260200184815260200183815260200182815260200194505050505060405180910390a35050565b6000606854905090565b61197e611c8a565b73ffffffffffffffffffffffffffffffffffffffff1661199c6115cc565b73ffffffffffffffffffffffffffffffffffffffff1614611a25576040517f08c379a00000000000000000000000000000000000000000000000000000000081526004018080602001828103825260208152602001807f4f776e61626c653a2063616c6c6572206973206e6f7420746865206f776e657281525060200191505060405180910390fd5b600073ffffffffffffffffffffffffffffffffffffffff168173ffffffffffffffffffffffffffffffffffffffff161415611aab576040517f08c379a0000000000000000000000000000000000000000000000000000000008152600401808060200182810382526026815260200180611fd26026913960400191505060405180910390fd5b8073ffffffffffffffffffffffffffffffffffffffff16603360009054906101000a900473ffffffffffffffffffffffffffffffffffffffff1673ffffffffffffffffffffffffffffffffffffffff167f8be0079c531659141344cd1fd0a4f28419497f9722a3daafe3b4186f6b6457e060405160405180910390a380603360006101000a81548173ffffffffffffffffffffffffffffffffffffffff021916908373ffffffffffffffffffffffffffffffffffffffff16021790555050565b6000611b7630611c92565b15905090565b600060019054906101000a900460ff1680611b9b5750611b9a611b6b565b5b80611bb1575060008054906101000a900460ff16155b611c06576040517f08c379a000000000000000000000000000000000000000000000000000000000815260040180806020018281038252602e81526020018061201c602e913960400191505060405180910390fd5b60008060019054906101000a900460ff161590508015611c56576001600060016101000a81548160ff02191690831515021790555060016000806101000a81548160ff0219169083151502179055505b611c5e611ca5565b611c66611da3565b8015611c875760008060016101000a81548160ff0219169083151502179055505b50565b600033905090565b600080823b905060008111915050919050565b600060019054906101000a900460ff1680611cc45750611cc3611b6b565b5b80611cda575060008054906101000a900460ff16155b611d2f576040517f08c379a000000000000000000000000000000000000000000000000000000000815260040180806020018281038252602e81526020018061201c602e913960400191505060405180910390fd5b60008060019054906101000a900460ff161590508015611d7f576001600060016101000a81548160ff02191690831515021790555060016000806101000a81548160ff0219169083151502179055505b8015611da05760008060016101000a81548160ff0219169083151502179055505b50565b600060019054906101000a900460ff1680611dc25750611dc1611b6b565b5b80611dd8575060008054906101000a900460ff16155b611e2d576040517f08c379a000000000000000000000000000000000000000000000000000000000815260040180806020018281038252602e81526020018061201c602e913960400191505060405180910390fd5b60008060019054906101000a900460ff161590508015611e7d576001600060016101000a81548160ff02191690831515021790555060016000806101000a81548160ff0219169083151502179055505b6000611e87611c8a565b905080603360006101000a81548173ffffffffffffffffffffffffffffffffffffffff021916908373ffffffffffffffffffffffffffffffffffffffff1602179055508073ffffffffffffffffffffffffffffffffffffffff16600073ffffffffffffffffffffffffffffffffffffffff167f8be0079c531659141344cd1fd0a4f28419497f9722a3daafe3b4186f6b6457e060405160405180910390a3508015611f475760008060016101000a81548160ff0219169083151502179055505b50565b6040518060a00160405280600073ffffffffffffffffffffffffffffffffffffffff168152602001600073ffffffffffffffffffffffffffffffffffffffff168152602001600081526020016000815260200160008152509056fe42616c616e63652073686f756c642062652067726561746572207468616e20726571756573742070726963654f776e61626c653a206e6577206f776e657220697320746865207a65726f2061646472657373596f7520617265206e6f7420746865206f776e6572206f66207468652072657175657374496e697469616c697a61626c653a20636f6e747261637420697320616c726561647920696e697469616c697a6564596f75206d75737420776169742074686520726573706f6e73652074696d6520746f2064656c6574652074686973207265717565737454686520616d6f756e742070616964206973206e6f7420657175616c20746f207468652073616c65207072696365596f7520617265206e6f742074686520726563697069656e74206f66207468652072657175657374a2646970667358221220875d295399175d2a2aedeb9a33fd6260b7d878a6e8518fc2b7748033ca10304364736f6c63430007000033",
  "linkReferences": {},
  "deployedLinkReferences": {}
}