{
  "_format": "hh-sol-artifact-1",
  "contractName": "AutographContract",
  "sourceName": "contracts/AutographContract.sol",
  "abi": [
    {
      "anonymous": false,
      "inputs": [
        {
          "indexed": true,
          "internalType": "address",
          "name": "owner",
          "type": "address"
        },
        {
          "indexed": true,
          "internalType": "address",
          "name": "approved",
          "type": "address"
        },
        {
          "indexed": true,
          "internalType": "uint256",
          "name": "tokenId",
          "type": "uint256"
        }
      ],
      "name": "Approval",
      "type": "event"
    },
    {
      "anonymous": false,
      "inputs": [
        {
          "indexed": true,
          "internalType": "address",
          "name": "owner",
          "type": "address"
        },
        {
          "indexed": true,
          "internalType": "address",
          "name": "operator",
          "type": "address"
        },
        {
          "indexed": false,
          "internalType": "bool",
          "name": "approved",
          "type": "bool"
        }
      ],
      "name": "ApprovalForAll",
      "type": "event"
    },
    {
      "anonymous": false,
      "inputs": [
        {
          "indexed": true,
          "internalType": "address",
          "name": "_royaltyRecipient",
          "type": "address"
        },
        {
          "indexed": true,
          "internalType": "address",
          "name": "_buyer",
          "type": "address"
        },
        {
          "indexed": true,
          "internalType": "uint256",
          "name": "_tokenId",
          "type": "uint256"
        },
        {
          "indexed": false,
          "internalType": "address",
          "name": "_tokenPaid",
          "type": "address"
        },
        {
          "indexed": false,
          "internalType": "uint256",
          "name": "_amount",
          "type": "uint256"
        }
      ],
      "name": "ReceivedRoyalties",
      "type": "event"
    },
    {
      "anonymous": false,
      "inputs": [
        {
          "indexed": true,
          "internalType": "address",
          "name": "from",
          "type": "address"
        },
        {
          "indexed": true,
          "internalType": "address",
          "name": "to",
          "type": "address"
        },
        {
          "indexed": true,
          "internalType": "uint256",
          "name": "tokenId",
          "type": "uint256"
        }
      ],
      "name": "Transfer",
      "type": "event"
    },
    {
      "inputs": [
        {
          "internalType": "address",
          "name": "to",
          "type": "address"
        },
        {
          "internalType": "uint256",
          "name": "tokenId",
          "type": "uint256"
        }
      ],
      "name": "approve",
      "outputs": [],
      "stateMutability": "nonpayable",
      "type": "function"
    },
    {
      "inputs": [
        {
          "internalType": "uint256",
          "name": "",
          "type": "uint256"
        }
      ],
      "name": "autographs",
      "outputs": [
        {
          "internalType": "address",
          "name": "creator",
          "type": "address"
        }
      ],
      "stateMutability": "view",
      "type": "function"
    },
    {
      "inputs": [
        {
          "internalType": "address",
          "name": "owner",
          "type": "address"
        }
      ],
      "name": "balanceOf",
      "outputs": [
        {
          "internalType": "uint256",
          "name": "",
          "type": "uint256"
        }
      ],
      "stateMutability": "view",
      "type": "function"
    },
    {
      "inputs": [],
      "name": "baseURI",
      "outputs": [
        {
          "internalType": "string",
          "name": "",
          "type": "string"
        }
      ],
      "stateMutability": "view",
      "type": "function"
    },
    {
      "inputs": [
        {
          "internalType": "uint256",
          "name": "tokenId",
          "type": "uint256"
        }
      ],
      "name": "creatorOf",
      "outputs": [
        {
          "internalType": "address",
          "name": "",
          "type": "address"
        }
      ],
      "stateMutability": "view",
      "type": "function"
    },
    {
      "inputs": [
        {
          "internalType": "uint256",
          "name": "tokenId",
          "type": "uint256"
        }
      ],
      "name": "getApproved",
      "outputs": [
        {
          "internalType": "address",
          "name": "",
          "type": "address"
        }
      ],
      "stateMutability": "view",
      "type": "function"
    },
    {
      "inputs": [],
      "name": "initialize",
      "outputs": [],
      "stateMutability": "nonpayable",
      "type": "function"
    },
    {
      "inputs": [
        {
          "internalType": "address",
          "name": "owner",
          "type": "address"
        },
        {
          "internalType": "address",
          "name": "operator",
          "type": "address"
        }
      ],
      "name": "isApprovedForAll",
      "outputs": [
        {
          "internalType": "bool",
          "name": "",
          "type": "bool"
        }
      ],
      "stateMutability": "view",
      "type": "function"
    },
    {
      "inputs": [
        {
          "internalType": "address",
          "name": "to",
          "type": "address"
        },
        {
          "internalType": "address",
          "name": "from",
          "type": "address"
        },
        {
          "internalType": "string",
          "name": "tokenURI",
          "type": "string"
        }
      ],
      "name": "mint",
      "outputs": [
        {
          "internalType": "uint256",
          "name": "",
          "type": "uint256"
        }
      ],
      "stateMutability": "nonpayable",
      "type": "function"
    },
    {
      "inputs": [],
      "name": "name",
      "outputs": [
        {
          "internalType": "string",
          "name": "",
          "type": "string"
        }
      ],
      "stateMutability": "view",
      "type": "function"
    },
    {
      "inputs": [
        {
          "internalType": "uint256",
          "name": "tokenId",
          "type": "uint256"
        }
      ],
      "name": "ownerOf",
      "outputs": [
        {
          "internalType": "address",
          "name": "",
          "type": "address"
        }
      ],
      "stateMutability": "view",
      "type": "function"
    },
    {
      "inputs": [
        {
          "internalType": "address",
          "name": "from",
          "type": "address"
        },
        {
          "internalType": "address",
          "name": "to",
          "type": "address"
        },
        {
          "internalType": "uint256",
          "name": "tokenId",
          "type": "uint256"
        }
      ],
      "name": "safeTransferFrom",
      "outputs": [],
      "stateMutability": "nonpayable",
      "type": "function"
    },
    {
      "inputs": [
        {
          "internalType": "address",
          "name": "from",
          "type": "address"
        },
        {
          "internalType": "address",
          "name": "to",
          "type": "address"
        },
        {
          "internalType": "uint256",
          "name": "tokenId",
          "type": "uint256"
        },
        {
          "internalType": "bytes",
          "name": "_data",
          "type": "bytes"
        }
      ],
      "name": "safeTransferFrom",
      "outputs": [],
      "stateMutability": "nonpayable",
      "type": "function"
    },
    {
      "inputs": [
        {
          "internalType": "address",
          "name": "operator",
          "type": "address"
        },
        {
          "internalType": "bool",
          "name": "approved",
          "type": "bool"
        }
      ],
      "name": "setApprovalForAll",
      "outputs": [],
      "stateMutability": "nonpayable",
      "type": "function"
    },
    {
      "inputs": [
        {
          "internalType": "bytes4",
          "name": "interfaceId",
          "type": "bytes4"
        }
      ],
      "name": "supportsInterface",
      "outputs": [
        {
          "internalType": "bool",
          "name": "",
          "type": "bool"
        }
      ],
      "stateMutability": "view",
      "type": "function"
    },
    {
      "inputs": [],
      "name": "symbol",
      "outputs": [
        {
          "internalType": "string",
          "name": "",
          "type": "string"
        }
      ],
      "stateMutability": "view",
      "type": "function"
    },
    {
      "inputs": [
        {
          "internalType": "uint256",
          "name": "index",
          "type": "uint256"
        }
      ],
      "name": "tokenByIndex",
      "outputs": [
        {
          "internalType": "uint256",
          "name": "",
          "type": "uint256"
        }
      ],
      "stateMutability": "view",
      "type": "function"
    },
    {
      "inputs": [
        {
          "internalType": "address",
          "name": "owner",
          "type": "address"
        },
        {
          "internalType": "uint256",
          "name": "index",
          "type": "uint256"
        }
      ],
      "name": "tokenOfOwnerByIndex",
      "outputs": [
        {
          "internalType": "uint256",
          "name": "",
          "type": "uint256"
        }
      ],
      "stateMutability": "view",
      "type": "function"
    },
    {
      "inputs": [
        {
          "internalType": "uint256",
          "name": "tokenId",
          "type": "uint256"
        }
      ],
      "name": "tokenURI",
      "outputs": [
        {
          "internalType": "string",
          "name": "",
          "type": "string"
        }
      ],
      "stateMutability": "view",
      "type": "function"
    },
    {
      "inputs": [],
      "name": "totalSupply",
      "outputs": [
        {
          "internalType": "uint256",
          "name": "",
          "type": "uint256"
        }
      ],
      "stateMutability": "view",
      "type": "function"
    },
    {
      "inputs": [
        {
          "internalType": "address",
          "name": "from",
          "type": "address"
        },
        {
          "internalType": "address",
          "name": "to",
          "type": "address"
        },
        {
          "internalType": "uint256",
          "name": "tokenId",
          "type": "uint256"
        }
      ],
      "name": "transferFrom",
      "outputs": [],
      "stateMutability": "nonpayable",
      "type": "function"
    },
    {
      "inputs": [],
      "name": "version",
      "outputs": [
        {
          "internalType": "uint256",
          "name": "",
          "type": "uint256"
        }
      ],
      "stateMutability": "view",
      "type": "function"
    }
  ],
  "bytecode": "0x608060405234801561001057600080fd5b506135b0806100206000396000f3fe608060405234801561001057600080fd5b50600436106101425760003560e01c806354fd4d50116100b85780638129fc1c1161007c5780638129fc1c1461078157806395d89b411461078b578063a22cb4651461080e578063b88d4fde1461085e578063c87b56dd14610963578063e985e9c514610a0a57610142565b806354fd4d50146105d8578063589a1743146105f65780636352211e1461064e5780636c0360eb146106a657806370a082311461072957610142565b8063221375a61161010a578063221375a6146102f157806323b872dd146104005780632f745c591461046e5780632fb3f57d146104d057806342842e0e146105285780634f6ccce71461059657610142565b806301ffc9a71461014757806306fdde03146101aa578063081812fc1461022d578063095ea7b31461028557806318160ddd146102d3575b600080fd5b6101926004803603602081101561015d57600080fd5b8101908080357bffffffffffffffffffffffffffffffffffffffffffffffffffffffff19169060200190929190505050610a84565b60405180821515815260200191505060405180910390f35b6101b2610aec565b6040518080602001828103825283818151815260200191508051906020019080838360005b838110156101f25780820151818401526020810190506101d7565b50505050905090810190601f16801561021f5780820380516001836020036101000a031916815260200191505b509250505060405180910390f35b6102596004803603602081101561024357600080fd5b8101908080359060200190929190505050610b8e565b604051808273ffffffffffffffffffffffffffffffffffffffff16815260200191505060405180910390f35b6102d16004803603604081101561029b57600080fd5b81019080803573ffffffffffffffffffffffffffffffffffffffff16906020019092919080359060200190929190505050610c29565b005b6102db610d6d565b6040518082815260200191505060405180910390f35b6103ea6004803603606081101561030757600080fd5b81019080803573ffffffffffffffffffffffffffffffffffffffff169060200190929190803573ffffffffffffffffffffffffffffffffffffffff1690602001909291908035906020019064010000000081111561036457600080fd5b82018360208201111561037657600080fd5b8035906020019184600183028401116401000000008311171561039857600080fd5b91908080601f016020809104026020016040519081016040528093929190818152602001838380828437600081840152601f19601f820116905080830192505050505050509192919290505050610d7e565b6040518082815260200191505060405180910390f35b61046c6004803603606081101561041657600080fd5b81019080803573ffffffffffffffffffffffffffffffffffffffff169060200190929190803573ffffffffffffffffffffffffffffffffffffffff16906020019092919080359060200190929190505050610e3d565b005b6104ba6004803603604081101561048457600080fd5b81019080803573ffffffffffffffffffffffffffffffffffffffff16906020019092919080359060200190929190505050610eb3565b6040518082815260200191505060405180910390f35b6104fc600480360360208110156104e657600080fd5b8101908080359060200190929190505050610f0e565b604051808273ffffffffffffffffffffffffffffffffffffffff16815260200191505060405180910390f35b6105946004803603606081101561053e57600080fd5b81019080803573ffffffffffffffffffffffffffffffffffffffff169060200190929190803573ffffffffffffffffffffffffffffffffffffffff16906020019092919080359060200190929190505050610f55565b005b6105c2600480360360208110156105ac57600080fd5b8101908080359060200190929190505050610f75565b6040518082815260200191505060405180910390f35b6105e0610f98565b6040518082815260200191505060405180910390f35b6106226004803603602081101561060c57600080fd5b8101908080359060200190929190505050610f9e565b604051808273ffffffffffffffffffffffffffffffffffffffff16815260200191505060405180910390f35b61067a6004803603602081101561066457600080fd5b8101908080359060200190929190505050610fe2565b604051808273ffffffffffffffffffffffffffffffffffffffff16815260200191505060405180910390f35b6106ae611019565b6040518080602001828103825283818151815260200191508051906020019080838360005b838110156106ee5780820151818401526020810190506106d3565b50505050905090810190601f16801561071b5780820380516001836020036101000a031916815260200191505b509250505060405180910390f35b61076b6004803603602081101561073f57600080fd5b81019080803573ffffffffffffffffffffffffffffffffffffffff1690602001909291905050506110bb565b6040518082815260200191505060405180910390f35b610789611190565b005b61079361130a565b6040518080602001828103825283818151815260200191508051906020019080838360005b838110156107d35780820151818401526020810190506107b8565b50505050905090810190601f1680156108005780820380516001836020036101000a031916815260200191505b509250505060405180910390f35b61085c6004803603604081101561082457600080fd5b81019080803573ffffffffffffffffffffffffffffffffffffffff1690602001909291908035151590602001909291905050506113ac565b005b6109616004803603608081101561087457600080fd5b81019080803573ffffffffffffffffffffffffffffffffffffffff169060200190929190803573ffffffffffffffffffffffffffffffffffffffff16906020019092919080359060200190929190803590602001906401000000008111156108db57600080fd5b8201836020820111156108ed57600080fd5b8035906020019184600183028401116401000000008311171561090f57600080fd5b91908080601f016020809104026020016040519081016040528093929190818152602001838380828437600081840152601f19601f820116905080830192505050505050509192919290505050611562565b005b61098f6004803603602081101561097957600080fd5b81019080803590602001909291905050506115da565b6040518080602001828103825283818151815260200191508051906020019080838360005b838110156109cf5780820151818401526020810190506109b4565b50505050905090810190601f1680156109fc5780820380516001836020036101000a031916815260200191505b509250505060405180910390f35b610a6c60048036036040811015610a2057600080fd5b81019080803573ffffffffffffffffffffffffffffffffffffffff169060200190929190803573ffffffffffffffffffffffffffffffffffffffff1690602001909291905050506118ab565b60405180821515815260200191505060405180910390f35b600060336000837bffffffffffffffffffffffffffffffffffffffffffffffffffffffff19167bffffffffffffffffffffffffffffffffffffffffffffffffffffffff1916815260200190815260200160002060009054906101000a900460ff169050919050565b6060606a8054600181600116156101000203166002900480601f016020809104026020016040519081016040528092919081815260200182805460018160011615610100020316600290048015610b845780601f10610b5957610100808354040283529160200191610b84565b820191906000526020600020905b815481529060010190602001808311610b6757829003601f168201915b5050505050905090565b6000610b998261193f565b610bee576040517f08c379a000000000000000000000000000000000000000000000000000000000815260040180806020018281038252602c815260200180613479602c913960400191505060405180910390fd5b6068600083815260200190815260200160002060009054906101000a900473ffffffffffffffffffffffffffffffffffffffff169050919050565b6000610c3482610fe2565b90508073ffffffffffffffffffffffffffffffffffffffff168373ffffffffffffffffffffffffffffffffffffffff161415610cbb576040517f08c379a00000000000000000000000000000000000000000000000000000000081526004018080602001828103825260218152602001806135296021913960400191505060405180910390fd5b8073ffffffffffffffffffffffffffffffffffffffff16610cda61195c565b73ffffffffffffffffffffffffffffffffffffffff161480610d095750610d0881610d0361195c565b6118ab565b5b610d5e576040517f08c379a000000000000000000000000000000000000000000000000000000000815260040180806020018281038252603881526020018061339e6038913960400191505060405180910390fd5b610d688383611964565b505050565b6000610d796066611a1d565b905090565b6000806097805490509050609760405180602001604052808673ffffffffffffffffffffffffffffffffffffffff168152509080600181540180825580915050600190039060005260206000200160009091909190915060008201518160000160006101000a81548173ffffffffffffffffffffffffffffffffffffffff021916908373ffffffffffffffffffffffffffffffffffffffff1602179055505050610e288582611a32565b610e328184611a50565b809150509392505050565b610e4e610e4861195c565b82611ada565b610ea3576040517f08c379a000000000000000000000000000000000000000000000000000000000815260040180806020018281038252603181526020018061354a6031913960400191505060405180910390fd5b610eae838383611bce565b505050565b6000610f0682606560008673ffffffffffffffffffffffffffffffffffffffff1673ffffffffffffffffffffffffffffffffffffffff168152602001908152602001600020611e1190919063ffffffff16565b905092915050565b60978181548110610f1b57fe5b906000526020600020016000915090508060000160009054906101000a900473ffffffffffffffffffffffffffffffffffffffff16905081565b610f7083838360405180602001604052806000815250611562565b505050565b600080610f8c836066611e2b90919063ffffffff16565b50905080915050919050565b60985481565b600060978281548110610fad57fe5b9060005260206000200160000160009054906101000a900473ffffffffffffffffffffffffffffffffffffffff169050919050565b600061101282604051806060016040528060298152602001613400602991396066611e579092919063ffffffff16565b9050919050565b6060606d8054600181600116156101000203166002900480601f0160208091040260200160405190810160405280929190818152602001828054600181600116156101000203166002900480156110b15780601f10611086576101008083540402835291602001916110b1565b820191906000526020600020905b81548152906001019060200180831161109457829003601f168201915b5050505050905090565b60008073ffffffffffffffffffffffffffffffffffffffff168273ffffffffffffffffffffffffffffffffffffffff161415611142576040517f08c379a000000000000000000000000000000000000000000000000000000000815260040180806020018281038252602a8152602001806133d6602a913960400191505060405180910390fd5b611189606560008473ffffffffffffffffffffffffffffffffffffffff1673ffffffffffffffffffffffffffffffffffffffff168152602001908152602001600020611e76565b9050919050565b600060019054906101000a900460ff16806111af57506111ae611e8b565b5b806111c5575060008054906101000a900460ff16155b61121a576040517f08c379a000000000000000000000000000000000000000000000000000000000815260040180806020018281038252602e815260200180613429602e913960400191505060405180910390fd5b60008060019054906101000a900460ff16159050801561126a576001600060016101000a81548160ff02191690831515021790555060016000806101000a81548160ff0219169083151502179055505b6112de6040518060400160405280601781526020017f48617368696e6b204175746f677261706820546f6b656e0000000000000000008152506040518060400160405280600481526020017f5349474e00000000000000000000000000000000000000000000000000000000815250611e9c565b600160988190555080156113075760008060016101000a81548160ff0219169083151502179055505b50565b6060606b8054600181600116156101000203166002900480601f0160208091040260200160405190810160405280929190818152602001828054600181600116156101000203166002900480156113a25780601f10611377576101008083540402835291602001916113a2565b820191906000526020600020905b81548152906001019060200180831161138557829003601f168201915b5050505050905090565b6113b461195c565b73ffffffffffffffffffffffffffffffffffffffff168273ffffffffffffffffffffffffffffffffffffffff161415611455576040517f08c379a00000000000000000000000000000000000000000000000000000000081526004018080602001828103825260198152602001807f4552433732313a20617070726f766520746f2063616c6c65720000000000000081525060200191505060405180910390fd5b806069600061146261195c565b73ffffffffffffffffffffffffffffffffffffffff1673ffffffffffffffffffffffffffffffffffffffff16815260200190815260200160002060008473ffffffffffffffffffffffffffffffffffffffff1673ffffffffffffffffffffffffffffffffffffffff16815260200190815260200160002060006101000a81548160ff0219169083151502179055508173ffffffffffffffffffffffffffffffffffffffff1661150f61195c565b73ffffffffffffffffffffffffffffffffffffffff167f17307eab39ab6107e8899845ad3d59bd9653f200f220920489ca2b5937696c318360405180821515815260200191505060405180910390a35050565b61157361156d61195c565b83611ada565b6115c8576040517f08c379a000000000000000000000000000000000000000000000000000000000815260040180806020018281038252603181526020018061354a6031913960400191505060405180910390fd5b6115d484848484611fb6565b50505050565b60606115e58261193f565b61163a576040517f08c379a000000000000000000000000000000000000000000000000000000000815260040180806020018281038252602f8152602001806134fa602f913960400191505060405180910390fd5b6060606c60008481526020019081526020016000208054600181600116156101000203166002900480601f0160208091040260200160405190810160405280929190818152602001828054600181600116156101000203166002900480156116e35780601f106116b8576101008083540402835291602001916116e3565b820191906000526020600020905b8154815290600101906020018083116116c657829003601f168201915b5050505050905060606116f4611019565b905060008151141561170a5781925050506118a6565b6000825111156117db5780826040516020018083805190602001908083835b6020831061174c5780518252602082019150602081019050602083039250611729565b6001836020036101000a03801982511681845116808217855250505050505090500182805190602001908083835b6020831061179d578051825260208201915060208101905060208303925061177a565b6001836020036101000a03801982511681845116808217855250505050505090500192505050604051602081830303815290604052925050506118a6565b806117e585612028565b6040516020018083805190602001908083835b6020831061181b57805182526020820191506020810190506020830392506117f8565b6001836020036101000a03801982511681845116808217855250505050505090500182805190602001908083835b6020831061186c5780518252602082019150602081019050602083039250611849565b6001836020036101000a03801982511681845116808217855250505050505090500192505050604051602081830303815290604052925050505b919050565b6000606960008473ffffffffffffffffffffffffffffffffffffffff1673ffffffffffffffffffffffffffffffffffffffff16815260200190815260200160002060008373ffffffffffffffffffffffffffffffffffffffff1673ffffffffffffffffffffffffffffffffffffffff16815260200190815260200160002060009054906101000a900460ff16905092915050565b600061195582606661216f90919063ffffffff16565b9050919050565b600033905090565b816068600083815260200190815260200160002060006101000a81548173ffffffffffffffffffffffffffffffffffffffff021916908373ffffffffffffffffffffffffffffffffffffffff160217905550808273ffffffffffffffffffffffffffffffffffffffff166119d783610fe2565b73ffffffffffffffffffffffffffffffffffffffff167f8c5be1e5ebec7d5bd14f71427d1e84f3dd0314c0f7b2291e5b200ac8c7c3b92560405160405180910390a45050565b6000611a2b82600001612189565b9050919050565b611a4c82826040518060200160405280600081525061219a565b5050565b611a598261193f565b611aae576040517f08c379a000000000000000000000000000000000000000000000000000000000815260040180806020018281038252602c8152602001806134a5602c913960400191505060405180910390fd5b80606c60008481526020019081526020016000209080519060200190611ad5929190613236565b505050565b6000611ae58261193f565b611b3a576040517f08c379a000000000000000000000000000000000000000000000000000000000815260040180806020018281038252602c815260200180613372602c913960400191505060405180910390fd5b6000611b4583610fe2565b90508073ffffffffffffffffffffffffffffffffffffffff168473ffffffffffffffffffffffffffffffffffffffff161480611bb457508373ffffffffffffffffffffffffffffffffffffffff16611b9c84610b8e565b73ffffffffffffffffffffffffffffffffffffffff16145b80611bc55750611bc481856118ab565b5b91505092915050565b8273ffffffffffffffffffffffffffffffffffffffff16611bee82610fe2565b73ffffffffffffffffffffffffffffffffffffffff1614611c5a576040517f08c379a00000000000000000000000000000000000000000000000000000000081526004018080602001828103825260298152602001806134d16029913960400191505060405180910390fd5b600073ffffffffffffffffffffffffffffffffffffffff168273ffffffffffffffffffffffffffffffffffffffff161415611ce0576040517f08c379a00000000000000000000000000000000000000000000000000000000081526004018080602001828103825260248152602001806133286024913960400191505060405180910390fd5b611ceb83838361220b565b611cf6600082611964565b611d4781606560008673ffffffffffffffffffffffffffffffffffffffff1673ffffffffffffffffffffffffffffffffffffffff16815260200190815260200160002061221090919063ffffffff16565b50611d9981606560008573ffffffffffffffffffffffffffffffffffffffff1673ffffffffffffffffffffffffffffffffffffffff16815260200190815260200160002061222a90919063ffffffff16565b50611db0818360666122449092919063ffffffff16565b50808273ffffffffffffffffffffffffffffffffffffffff168473ffffffffffffffffffffffffffffffffffffffff167fddf252ad1be2c89b69c2b068fc378daa952ba7f163c4a11628f55a4df523b3ef60405160405180910390a4505050565b6000611e208360000183612279565b60001c905092915050565b600080600080611e3e86600001866122fc565b915091508160001c8160001c9350935050509250929050565b6000611e6a846000018460001b84612395565b60001c90509392505050565b6000611e848260000161248b565b9050919050565b6000611e963061249c565b15905090565b600060019054906101000a900460ff1680611ebb5750611eba611e8b565b5b80611ed1575060008054906101000a900460ff16155b611f26576040517f08c379a000000000000000000000000000000000000000000000000000000000815260040180806020018281038252602e815260200180613429602e913960400191505060405180910390fd5b60008060019054906101000a900460ff161590508015611f76576001600060016101000a81548160ff02191690831515021790555060016000806101000a81548160ff0219169083151502179055505b611f7e6124af565b611f866125ad565b611f9083836126bb565b8015611fb15760008060016101000a81548160ff0219169083151502179055505b505050565b611fc1848484611bce565b611fcd84848484612819565b612022576040517f08c379a00000000000000000000000000000000000000000000000000000000081526004018080602001828103825260328152602001806132f66032913960400191505060405180910390fd5b50505050565b60606000821415612070576040518060400160405280600181526020017f3000000000000000000000000000000000000000000000000000000000000000815250905061216a565b600082905060005b6000821461209a578080600101915050600a828161209257fe5b049150612078565b60608167ffffffffffffffff811180156120b357600080fd5b506040519080825280601f01601f1916602001820160405280156120e65781602001600182028036833780820191505090505b50905060006001830390508593505b6000841461216257600a848161210757fe5b0660300160f81b8282806001900393508151811061212157fe5b60200101907effffffffffffffffffffffffffffffffffffffffffffffffffffffffffffff1916908160001a905350600a848161215a57fe5b0493506120f5565b819450505050505b919050565b6000612181836000018360001b612a32565b905092915050565b600081600001805490509050919050565b6121a48383612a55565b6121b16000848484612819565b612206576040517f08c379a00000000000000000000000000000000000000000000000000000000081526004018080602001828103825260328152602001806132f66032913960400191505060405180910390fd5b505050565b505050565b6000612222836000018360001b612c49565b905092915050565b600061223c836000018360001b612d31565b905092915050565b6000612270846000018460001b8473ffffffffffffffffffffffffffffffffffffffff1660001b612da1565b90509392505050565b6000818360000180549050116122da576040517f08c379a00000000000000000000000000000000000000000000000000000000081526004018080602001828103825260228152602001806132d46022913960400191505060405180910390fd5b8260000182815481106122e957fe5b9060005260206000200154905092915050565b6000808284600001805490501161235e576040517f08c379a00000000000000000000000000000000000000000000000000000000081526004018080602001828103825260228152602001806134576022913960400191505060405180910390fd5b600084600001848154811061236f57fe5b906000526020600020906002020190508060000154816001015492509250509250929050565b6000808460010160008581526020019081526020016000205490506000811415839061245c576040517f08c379a00000000000000000000000000000000000000000000000000000000081526004018080602001828103825283818151815260200191508051906020019080838360005b83811015612421578082015181840152602081019050612406565b50505050905090810190601f16801561244e5780820380516001836020036101000a031916815260200191505b509250505060405180910390fd5b5084600001600182038154811061246f57fe5b9060005260206000209060020201600101549150509392505050565b600081600001805490509050919050565b600080823b905060008111915050919050565b600060019054906101000a900460ff16806124ce57506124cd611e8b565b5b806124e4575060008054906101000a900460ff16155b612539576040517f08c379a000000000000000000000000000000000000000000000000000000000815260040180806020018281038252602e815260200180613429602e913960400191505060405180910390fd5b60008060019054906101000a900460ff161590508015612589576001600060016101000a81548160ff02191690831515021790555060016000806101000a81548160ff0219169083151502179055505b80156125aa5760008060016101000a81548160ff0219169083151502179055505b50565b600060019054906101000a900460ff16806125cc57506125cb611e8b565b5b806125e2575060008054906101000a900460ff16155b612637576040517f08c379a000000000000000000000000000000000000000000000000000000000815260040180806020018281038252602e815260200180613429602e913960400191505060405180910390fd5b60008060019054906101000a900460ff161590508015612687576001600060016101000a81548160ff02191690831515021790555060016000806101000a81548160ff0219169083151502179055505b6126976301ffc9a760e01b612e7d565b80156126b85760008060016101000a81548160ff0219169083151502179055505b50565b600060019054906101000a900460ff16806126da57506126d9611e8b565b5b806126f0575060008054906101000a900460ff16155b612745576040517f08c379a000000000000000000000000000000000000000000000000000000000815260040180806020018281038252602e815260200180613429602e913960400191505060405180910390fd5b60008060019054906101000a900460ff161590508015612795576001600060016101000a81548160ff02191690831515021790555060016000806101000a81548160ff0219169083151502179055505b82606a90805190602001906127ab929190613236565b5081606b90805190602001906127c2929190613236565b506127d36380ac58cd60e01b612e7d565b6127e3635b5e139f60e01b612e7d565b6127f363780e9d6360e01b612e7d565b80156128145760008060016101000a81548160ff0219169083151502179055505b505050565b600061283a8473ffffffffffffffffffffffffffffffffffffffff1661249c565b6128475760019050612a2a565b60606129b163150b7a0260e01b61285c61195c565b888787604051602401808573ffffffffffffffffffffffffffffffffffffffff1681526020018473ffffffffffffffffffffffffffffffffffffffff16815260200183815260200180602001828103825283818151815260200191508051906020019080838360005b838110156128e05780820151818401526020810190506128c5565b50505050905090810190601f16801561290d5780820380516001836020036101000a031916815260200191505b5095505050505050604051602081830303815290604052907bffffffffffffffffffffffffffffffffffffffffffffffffffffffff19166020820180517bffffffffffffffffffffffffffffffffffffffffffffffffffffffff83818316178352505050506040518060600160405280603281526020016132f6603291398773ffffffffffffffffffffffffffffffffffffffff16612f869092919063ffffffff16565b905060008180602001905160208110156129ca57600080fd5b8101908080519060200190929190505050905063150b7a0260e01b7bffffffffffffffffffffffffffffffffffffffffffffffffffffffff1916817bffffffffffffffffffffffffffffffffffffffffffffffffffffffff191614925050505b949350505050565b600080836001016000848152602001908152602001600020541415905092915050565b600073ffffffffffffffffffffffffffffffffffffffff168273ffffffffffffffffffffffffffffffffffffffff161415612af8576040517f08c379a00000000000000000000000000000000000000000000000000000000081526004018080602001828103825260208152602001807f4552433732313a206d696e7420746f20746865207a65726f206164647265737381525060200191505060405180910390fd5b612b018161193f565b15612b74576040517f08c379a000000000000000000000000000000000000000000000000000000000815260040180806020018281038252601c8152602001807f4552433732313a20746f6b656e20616c7265616479206d696e7465640000000081525060200191505060405180910390fd5b612b806000838361220b565b612bd181606560008573ffffffffffffffffffffffffffffffffffffffff1673ffffffffffffffffffffffffffffffffffffffff16815260200190815260200160002061222a90919063ffffffff16565b50612be8818360666122449092919063ffffffff16565b50808273ffffffffffffffffffffffffffffffffffffffff16600073ffffffffffffffffffffffffffffffffffffffff167fddf252ad1be2c89b69c2b068fc378daa952ba7f163c4a11628f55a4df523b3ef60405160405180910390a45050565b60008083600101600084815260200190815260200160002054905060008114612d255760006001820390506000600186600001805490500390506000866000018281548110612c9457fe5b9060005260206000200154905080876000018481548110612cb157fe5b9060005260206000200181905550600183018760010160008381526020019081526020016000208190555086600001805480612ce957fe5b60019003818190600052602060002001600090559055866001016000878152602001908152602001600020600090556001945050505050612d2b565b60009150505b92915050565b6000612d3d8383612f9e565b612d96578260000182908060018154018082558091505060019003906000526020600020016000909190919091505582600001805490508360010160008481526020019081526020016000208190555060019050612d9b565b600090505b92915050565b6000808460010160008581526020019081526020016000205490506000811415612e4857846000016040518060400160405280868152602001858152509080600181540180825580915050600190039060005260206000209060020201600090919091909150600082015181600001556020820151816001015550508460000180549050856001016000868152602001908152602001600020819055506001915050612e76565b82856000016001830381548110612e5b57fe5b90600052602060002090600202016001018190555060009150505b9392505050565b63ffffffff60e01b817bffffffffffffffffffffffffffffffffffffffffffffffffffffffff19161415612f19576040517f08c379a000000000000000000000000000000000000000000000000000000000815260040180806020018281038252601c8152602001807f4552433136353a20696e76616c696420696e746572666163652069640000000081525060200191505060405180910390fd5b600160336000837bffffffffffffffffffffffffffffffffffffffffffffffffffffffff19167bffffffffffffffffffffffffffffffffffffffffffffffffffffffff1916815260200190815260200160002060006101000a81548160ff02191690831515021790555050565b6060612f958484600085612fc1565b90509392505050565b600080836001016000848152602001908152602001600020541415905092915050565b60608247101561301c576040517f08c379a000000000000000000000000000000000000000000000000000000000815260040180806020018281038252602681526020018061334c6026913960400191505060405180910390fd5b6130258561249c565b613097576040517f08c379a000000000000000000000000000000000000000000000000000000000815260040180806020018281038252601d8152602001807f416464726573733a2063616c6c20746f206e6f6e2d636f6e747261637400000081525060200191505060405180910390fd5b600060608673ffffffffffffffffffffffffffffffffffffffff1685876040518082805190602001908083835b602083106130e757805182526020820191506020810190506020830392506130c4565b6001836020036101000a03801982511681845116808217855250505050505090500191505060006040518083038185875af1925050503d8060008114613149576040519150601f19603f3d011682016040523d82523d6000602084013e61314e565b606091505b509150915061315e82828661316a565b92505050949350505050565b6060831561317a5782905061322f565b60008351111561318d5782518084602001fd5b816040517f08c379a00000000000000000000000000000000000000000000000000000000081526004018080602001828103825283818151815260200191508051906020019080838360005b838110156131f45780820151818401526020810190506131d9565b50505050905090810190601f1680156132215780820380516001836020036101000a031916815260200191505b509250505060405180910390fd5b9392505050565b828054600181600116156101000203166002900490600052602060002090601f016020900481019282601f1061327757805160ff19168380011785556132a5565b828001600101855582156132a5579182015b828111156132a4578251825591602001919060010190613289565b5b5090506132b291906132b6565b5090565b5b808211156132cf5760008160009055506001016132b7565b509056fe456e756d657261626c655365743a20696e646578206f7574206f6620626f756e64734552433732313a207472616e7366657220746f206e6f6e20455243373231526563656976657220696d706c656d656e7465724552433732313a207472616e7366657220746f20746865207a65726f2061646472657373416464726573733a20696e73756666696369656e742062616c616e636520666f722063616c6c4552433732313a206f70657261746f7220717565727920666f72206e6f6e6578697374656e7420746f6b656e4552433732313a20617070726f76652063616c6c6572206973206e6f74206f776e6572206e6f7220617070726f76656420666f7220616c6c4552433732313a2062616c616e636520717565727920666f7220746865207a65726f20616464726573734552433732313a206f776e657220717565727920666f72206e6f6e6578697374656e7420746f6b656e496e697469616c697a61626c653a20636f6e747261637420697320616c726561647920696e697469616c697a6564456e756d657261626c654d61703a20696e646578206f7574206f6620626f756e64734552433732313a20617070726f76656420717565727920666f72206e6f6e6578697374656e7420746f6b656e4552433732314d657461646174613a2055524920736574206f66206e6f6e6578697374656e7420746f6b656e4552433732313a207472616e73666572206f6620746f6b656e2074686174206973206e6f74206f776e4552433732314d657461646174613a2055524920717565727920666f72206e6f6e6578697374656e7420746f6b656e4552433732313a20617070726f76616c20746f2063757272656e74206f776e65724552433732313a207472616e736665722063616c6c6572206973206e6f74206f776e6572206e6f7220617070726f766564a2646970667358221220091bf96744328ecc6e275abbdb83c06b2e1c6bbf8cbb9014ee5185e2077f908564736f6c63430007000033",
  "linkReferences": {},
  "deployedLinkReferences": {}
}