{
  "_format": "hh-sol-artifact-1",
  "contractName": "AutographContract",
  "sourceName": "contracts/AutographContract.sol",
  "abi": [
    {
      "anonymous": false,
      "inputs": [
        {
          "indexed": true,
          "internalType": "address",
          "name": "owner",
          "type": "address"
        },
        {
          "indexed": true,
          "internalType": "address",
          "name": "approved",
          "type": "address"
        },
        {
          "indexed": true,
          "internalType": "uint256",
          "name": "tokenId",
          "type": "uint256"
        }
      ],
      "name": "Approval",
      "type": "event"
    },
    {
      "anonymous": false,
      "inputs": [
        {
          "indexed": true,
          "internalType": "address",
          "name": "owner",
          "type": "address"
        },
        {
          "indexed": true,
          "internalType": "address",
          "name": "operator",
          "type": "address"
        },
        {
          "indexed": false,
          "internalType": "bool",
          "name": "approved",
          "type": "bool"
        }
      ],
      "name": "ApprovalForAll",
      "type": "event"
    },
    {
      "anonymous": false,
      "inputs": [
        {
          "indexed": false,
          "internalType": "uint256",
          "name": "id",
          "type": "uint256"
        },
        {
          "indexed": false,
          "internalType": "address[]",
          "name": "creators",
          "type": "address[]"
        },
        {
          "indexed": true,
          "internalType": "address",
          "name": "owner",
          "type": "address"
        },
        {
          "indexed": false,
          "internalType": "string",
          "name": "imageURI",
          "type": "string"
        },
        {
          "indexed": false,
          "internalType": "string",
          "name": "metadataURI",
          "type": "string"
        }
      ],
      "name": "AutographMinted",
      "type": "event"
    },
    {
      "anonymous": false,
      "inputs": [
        {
          "indexed": true,
          "internalType": "address",
          "name": "from",
          "type": "address"
        },
        {
          "indexed": true,
          "internalType": "address",
          "name": "to",
          "type": "address"
        },
        {
          "indexed": true,
          "internalType": "uint256",
          "name": "tokenId",
          "type": "uint256"
        }
      ],
      "name": "Transfer",
      "type": "event"
    },
    {
      "inputs": [
        {
          "internalType": "address",
          "name": "to",
          "type": "address"
        },
        {
          "internalType": "uint256",
          "name": "tokenId",
          "type": "uint256"
        }
      ],
      "name": "approve",
      "outputs": [],
      "stateMutability": "nonpayable",
      "type": "function"
    },
    {
      "inputs": [
        {
          "internalType": "uint256",
          "name": "",
          "type": "uint256"
        }
      ],
      "name": "autographs",
      "outputs": [
        {
          "internalType": "string",
          "name": "imageURI",
          "type": "string"
        }
      ],
      "stateMutability": "view",
      "type": "function"
    },
    {
      "inputs": [
        {
          "internalType": "address",
          "name": "owner",
          "type": "address"
        }
      ],
      "name": "balanceOf",
      "outputs": [
        {
          "internalType": "uint256",
          "name": "",
          "type": "uint256"
        }
      ],
      "stateMutability": "view",
      "type": "function"
    },
    {
      "inputs": [],
      "name": "baseURI",
      "outputs": [
        {
          "internalType": "string",
          "name": "",
          "type": "string"
        }
      ],
      "stateMutability": "view",
      "type": "function"
    },
    {
      "inputs": [
        {
          "internalType": "uint256",
          "name": "tokenId",
          "type": "uint256"
        }
      ],
      "name": "creatorOf",
      "outputs": [
        {
          "internalType": "address[]",
          "name": "",
          "type": "address[]"
        }
      ],
      "stateMutability": "view",
      "type": "function"
    },
    {
      "inputs": [
        {
          "internalType": "uint256",
          "name": "tokenId",
          "type": "uint256"
        }
      ],
      "name": "getApproved",
      "outputs": [
        {
          "internalType": "address",
          "name": "",
          "type": "address"
        }
      ],
      "stateMutability": "view",
      "type": "function"
    },
    {
      "inputs": [],
      "name": "initialize",
      "outputs": [],
      "stateMutability": "nonpayable",
      "type": "function"
    },
    {
      "inputs": [
        {
          "internalType": "address",
          "name": "owner",
          "type": "address"
        },
        {
          "internalType": "address",
          "name": "operator",
          "type": "address"
        }
      ],
      "name": "isApprovedForAll",
      "outputs": [
        {
          "internalType": "bool",
          "name": "",
          "type": "bool"
        }
      ],
      "stateMutability": "view",
      "type": "function"
    },
    {
      "inputs": [
        {
          "internalType": "address",
          "name": "to",
          "type": "address"
        },
        {
          "internalType": "address[]",
          "name": "signers",
          "type": "address[]"
        },
        {
          "internalType": "string",
          "name": "imageURI",
          "type": "string"
        },
        {
          "internalType": "string",
          "name": "metadataURI",
          "type": "string"
        }
      ],
      "name": "mint",
      "outputs": [
        {
          "internalType": "uint256",
          "name": "",
          "type": "uint256"
        }
      ],
      "stateMutability": "nonpayable",
      "type": "function"
    },
    {
      "inputs": [],
      "name": "name",
      "outputs": [
        {
          "internalType": "string",
          "name": "",
          "type": "string"
        }
      ],
      "stateMutability": "view",
      "type": "function"
    },
    {
      "inputs": [
        {
          "internalType": "uint256",
          "name": "tokenId",
          "type": "uint256"
        }
      ],
      "name": "ownerOf",
      "outputs": [
        {
          "internalType": "address",
          "name": "",
          "type": "address"
        }
      ],
      "stateMutability": "view",
      "type": "function"
    },
    {
      "inputs": [
        {
          "internalType": "address",
          "name": "from",
          "type": "address"
        },
        {
          "internalType": "address",
          "name": "to",
          "type": "address"
        },
        {
          "internalType": "uint256",
          "name": "tokenId",
          "type": "uint256"
        }
      ],
      "name": "safeTransferFrom",
      "outputs": [],
      "stateMutability": "nonpayable",
      "type": "function"
    },
    {
      "inputs": [
        {
          "internalType": "address",
          "name": "from",
          "type": "address"
        },
        {
          "internalType": "address",
          "name": "to",
          "type": "address"
        },
        {
          "internalType": "uint256",
          "name": "tokenId",
          "type": "uint256"
        },
        {
          "internalType": "bytes",
          "name": "_data",
          "type": "bytes"
        }
      ],
      "name": "safeTransferFrom",
      "outputs": [],
      "stateMutability": "nonpayable",
      "type": "function"
    },
    {
      "inputs": [
        {
          "internalType": "address",
          "name": "operator",
          "type": "address"
        },
        {
          "internalType": "bool",
          "name": "approved",
          "type": "bool"
        }
      ],
      "name": "setApprovalForAll",
      "outputs": [],
      "stateMutability": "nonpayable",
      "type": "function"
    },
    {
      "inputs": [
        {
          "internalType": "bytes4",
          "name": "interfaceId",
          "type": "bytes4"
        }
      ],
      "name": "supportsInterface",
      "outputs": [
        {
          "internalType": "bool",
          "name": "",
          "type": "bool"
        }
      ],
      "stateMutability": "view",
      "type": "function"
    },
    {
      "inputs": [],
      "name": "symbol",
      "outputs": [
        {
          "internalType": "string",
          "name": "",
          "type": "string"
        }
      ],
      "stateMutability": "view",
      "type": "function"
    },
    {
      "inputs": [
        {
          "internalType": "uint256",
          "name": "index",
          "type": "uint256"
        }
      ],
      "name": "tokenByIndex",
      "outputs": [
        {
          "internalType": "uint256",
          "name": "",
          "type": "uint256"
        }
      ],
      "stateMutability": "view",
      "type": "function"
    },
    {
      "inputs": [
        {
          "internalType": "address",
          "name": "owner",
          "type": "address"
        },
        {
          "internalType": "uint256",
          "name": "index",
          "type": "uint256"
        }
      ],
      "name": "tokenOfOwnerByIndex",
      "outputs": [
        {
          "internalType": "uint256",
          "name": "",
          "type": "uint256"
        }
      ],
      "stateMutability": "view",
      "type": "function"
    },
    {
      "inputs": [
        {
          "internalType": "uint256",
          "name": "tokenId",
          "type": "uint256"
        }
      ],
      "name": "tokenURI",
      "outputs": [
        {
          "internalType": "string",
          "name": "",
          "type": "string"
        }
      ],
      "stateMutability": "view",
      "type": "function"
    },
    {
      "inputs": [],
      "name": "totalSupply",
      "outputs": [
        {
          "internalType": "uint256",
          "name": "",
          "type": "uint256"
        }
      ],
      "stateMutability": "view",
      "type": "function"
    },
    {
      "inputs": [
        {
          "internalType": "address",
          "name": "from",
          "type": "address"
        },
        {
          "internalType": "address",
          "name": "to",
          "type": "address"
        },
        {
          "internalType": "uint256",
          "name": "tokenId",
          "type": "uint256"
        }
      ],
      "name": "transferFrom",
      "outputs": [],
      "stateMutability": "nonpayable",
      "type": "function"
    }
  ],
  "bytecode": "0x608060405234801561001057600080fd5b50613a00806100206000396000f3fe608060405234801561001057600080fd5b50600436106101375760003560e01c80634f6ccce7116100b85780638129fc1c1161007c5780638129fc1c146108dd57806395d89b41146108e7578063a22cb4651461096a578063b88d4fde146109ba578063c87b56dd14610abf578063e985e9c514610b6657610137565b80634f6ccce7146106e5578063589a1743146107275780636352211e146107aa5780636c0360eb1461080257806370a082311461088557610137565b80631ffbb6aa116100ff5780631ffbb6aa146102e657806323b872dd146105005780632f745c591461056e5780632fb3f57d146105d057806342842e0e1461067757610137565b806301ffc9a71461013c57806306fdde031461019f578063081812fc14610222578063095ea7b31461027a57806318160ddd146102c8575b600080fd5b6101876004803603602081101561015257600080fd5b8101908080357bffffffffffffffffffffffffffffffffffffffffffffffffffffffff19169060200190929190505050610be0565b60405180821515815260200191505060405180910390f35b6101a7610c48565b6040518080602001828103825283818151815260200191508051906020019080838360005b838110156101e75780820151818401526020810190506101cc565b50505050905090810190601f1680156102145780820380516001836020036101000a031916815260200191505b509250505060405180910390f35b61024e6004803603602081101561023857600080fd5b8101908080359060200190929190505050610cea565b604051808273ffffffffffffffffffffffffffffffffffffffff16815260200191505060405180910390f35b6102c66004803603604081101561029057600080fd5b81019080803573ffffffffffffffffffffffffffffffffffffffff16906020019092919080359060200190929190505050610d85565b005b6102d0610ec9565b6040518082815260200191505060405180910390f35b6104ea600480360360808110156102fc57600080fd5b81019080803573ffffffffffffffffffffffffffffffffffffffff1690602001909291908035906020019064010000000081111561033957600080fd5b82018360208201111561034b57600080fd5b8035906020019184602083028401116401000000008311171561036d57600080fd5b919080806020026020016040519081016040528093929190818152602001838360200280828437600081840152601f19601f820116905080830192505050505050509192919290803590602001906401000000008111156103cd57600080fd5b8201836020820111156103df57600080fd5b8035906020019184600183028401116401000000008311171561040157600080fd5b91908080601f016020809104026020016040519081016040528093929190818152602001838380828437600081840152601f19601f8201169050808301925050505050505091929192908035906020019064010000000081111561046457600080fd5b82018360208201111561047657600080fd5b8035906020019184600183028401116401000000008311171561049857600080fd5b91908080601f016020809104026020016040519081016040528093929190818152602001838380828437600081840152601f19601f820116905080830192505050505050509192919290505050610eda565b6040518082815260200191505060405180910390f35b61056c6004803603606081101561051657600080fd5b81019080803573ffffffffffffffffffffffffffffffffffffffff169060200190929190803573ffffffffffffffffffffffffffffffffffffffff169060200190929190803590602001909291905050506110f2565b005b6105ba6004803603604081101561058457600080fd5b81019080803573ffffffffffffffffffffffffffffffffffffffff16906020019092919080359060200190929190505050611168565b6040518082815260200191505060405180910390f35b6105fc600480360360208110156105e657600080fd5b81019080803590602001909291905050506111c3565b6040518080602001828103825283818151815260200191508051906020019080838360005b8381101561063c578082015181840152602081019050610621565b50505050905090810190601f1680156106695780820380516001836020036101000a031916815260200191505b509250505060405180910390f35b6106e36004803603606081101561068d57600080fd5b81019080803573ffffffffffffffffffffffffffffffffffffffff169060200190929190803573ffffffffffffffffffffffffffffffffffffffff16906020019092919080359060200190929190505050611286565b005b610711600480360360208110156106fb57600080fd5b81019080803590602001909291905050506112a6565b6040518082815260200191505060405180910390f35b6107536004803603602081101561073d57600080fd5b81019080803590602001909291905050506112c9565b6040518080602001828103825283818151815260200191508051906020019060200280838360005b8381101561079657808201518184015260208101905061077b565b505050509050019250505060405180910390f35b6107d6600480360360208110156107c057600080fd5b8101908080359060200190929190505050611375565b604051808273ffffffffffffffffffffffffffffffffffffffff16815260200191505060405180910390f35b61080a6113ac565b6040518080602001828103825283818151815260200191508051906020019080838360005b8381101561084a57808201518184015260208101905061082f565b50505050905090810190601f1680156108775780820380516001836020036101000a031916815260200191505b509250505060405180910390f35b6108c76004803603602081101561089b57600080fd5b81019080803573ffffffffffffffffffffffffffffffffffffffff16906020019092919050505061144e565b6040518082815260200191505060405180910390f35b6108e5611523565b005b6108ef611695565b6040518080602001828103825283818151815260200191508051906020019080838360005b8381101561092f578082015181840152602081019050610914565b50505050905090810190601f16801561095c5780820380516001836020036101000a031916815260200191505b509250505060405180910390f35b6109b86004803603604081101561098057600080fd5b81019080803573ffffffffffffffffffffffffffffffffffffffff169060200190929190803515159060200190929190505050611737565b005b610abd600480360360808110156109d057600080fd5b81019080803573ffffffffffffffffffffffffffffffffffffffff169060200190929190803573ffffffffffffffffffffffffffffffffffffffff1690602001909291908035906020019092919080359060200190640100000000811115610a3757600080fd5b820183602082011115610a4957600080fd5b80359060200191846001830284011164010000000083111715610a6b57600080fd5b91908080601f016020809104026020016040519081016040528093929190818152602001838380828437600081840152601f19601f8201169050808301925050505050505091929192905050506118ed565b005b610aeb60048036036020811015610ad557600080fd5b8101908080359060200190929190505050611965565b6040518080602001828103825283818151815260200191508051906020019080838360005b83811015610b2b578082015181840152602081019050610b10565b50505050905090810190601f168015610b585780820380516001836020036101000a031916815260200191505b509250505060405180910390f35b610bc860048036036040811015610b7c57600080fd5b81019080803573ffffffffffffffffffffffffffffffffffffffff169060200190929190803573ffffffffffffffffffffffffffffffffffffffff169060200190929190505050611c36565b60405180821515815260200191505060405180910390f35b600060336000837bffffffffffffffffffffffffffffffffffffffffffffffffffffffff19167bffffffffffffffffffffffffffffffffffffffffffffffffffffffff1916815260200190815260200160002060009054906101000a900460ff169050919050565b6060606a8054600181600116156101000203166002900480601f016020809104026020016040519081016040528092919081815260200182805460018160011615610100020316600290048015610ce05780601f10610cb557610100808354040283529160200191610ce0565b820191906000526020600020905b815481529060010190602001808311610cc357829003601f168201915b5050505050905090565b6000610cf582611cca565b610d4a576040517f08c379a000000000000000000000000000000000000000000000000000000000815260040180806020018281038252602c8152602001806138c9602c913960400191505060405180910390fd5b6068600083815260200190815260200160002060009054906101000a900473ffffffffffffffffffffffffffffffffffffffff169050919050565b6000610d9082611375565b90508073ffffffffffffffffffffffffffffffffffffffff168373ffffffffffffffffffffffffffffffffffffffff161415610e17576040517f08c379a00000000000000000000000000000000000000000000000000000000081526004018080602001828103825260218152602001806139796021913960400191505060405180910390fd5b8073ffffffffffffffffffffffffffffffffffffffff16610e36611ce7565b73ffffffffffffffffffffffffffffffffffffffff161480610e655750610e6481610e5f611ce7565b611c36565b5b610eba576040517f08c379a00000000000000000000000000000000000000000000000000000000081526004018080602001828103825260388152602001806137ee6038913960400191505060405180910390fd5b610ec48383611cef565b505050565b6000610ed56066611da8565b905090565b6000806097805490509050609760405180604001604052808781526020018681525090806001815401808255809150506001900390600052602060002090600202016000909190919091506000820151816000019080519060200190610f419291906135c1565b506020820151816001019080519060200190610f5e92919061364b565b505050610f6b8682611dbd565b610f758184611ddb565b8573ffffffffffffffffffffffffffffffffffffffff167fa6c8238cbed10fcf0096924959a51559d6442e97d46fbf32a156dd2357b2328b8287878760405180858152602001806020018060200180602001848103845287818151815260200191508051906020019060200280838360005b83811015611002578082015181840152602081019050610fe7565b50505050905001848103835286818151815260200191508051906020019080838360005b83811015611041578082015181840152602081019050611026565b50505050905090810190601f16801561106e5780820380516001836020036101000a031916815260200191505b50848103825285818151815260200191508051906020019080838360005b838110156110a757808201518184015260208101905061108c565b50505050905090810190601f1680156110d45780820380516001836020036101000a031916815260200191505b5097505050505050505060405180910390a280915050949350505050565b6111036110fd611ce7565b82611e65565b611158576040517f08c379a000000000000000000000000000000000000000000000000000000000815260040180806020018281038252603181526020018061399a6031913960400191505060405180910390fd5b611163838383611f59565b505050565b60006111bb82606560008673ffffffffffffffffffffffffffffffffffffffff1673ffffffffffffffffffffffffffffffffffffffff16815260200190815260200160002061219c90919063ffffffff16565b905092915050565b609781815481106111d057fe5b9060005260206000209060020201600091509050806001018054600181600116156101000203166002900480601f01602080910402602001604051908101604052809291908181526020018280546001816001161561010002031660029004801561127c5780601f106112515761010080835404028352916020019161127c565b820191906000526020600020905b81548152906001019060200180831161125f57829003601f168201915b5050505050905081565b6112a1838383604051806020016040528060008152506118ed565b505050565b6000806112bd8360666121b690919063ffffffff16565b50905080915050919050565b6060609782815481106112d857fe5b906000526020600020906002020160000180548060200260200160405190810160405280929190818152602001828054801561136957602002820191906000526020600020905b8160009054906101000a900473ffffffffffffffffffffffffffffffffffffffff1673ffffffffffffffffffffffffffffffffffffffff168152602001906001019080831161131f575b50505050509050919050565b60006113a5826040518060600160405280602981526020016138506029913960666121e29092919063ffffffff16565b9050919050565b6060606d8054600181600116156101000203166002900480601f0160208091040260200160405190810160405280929190818152602001828054600181600116156101000203166002900480156114445780601f1061141957610100808354040283529160200191611444565b820191906000526020600020905b81548152906001019060200180831161142757829003601f168201915b5050505050905090565b60008073ffffffffffffffffffffffffffffffffffffffff168273ffffffffffffffffffffffffffffffffffffffff1614156114d5576040517f08c379a000000000000000000000000000000000000000000000000000000000815260040180806020018281038252602a815260200180613826602a913960400191505060405180910390fd5b61151c606560008473ffffffffffffffffffffffffffffffffffffffff1673ffffffffffffffffffffffffffffffffffffffff168152602001908152602001600020612201565b9050919050565b600060019054906101000a900460ff16806115425750611541612216565b5b80611558575060008054906101000a900460ff16155b6115ad576040517f08c379a000000000000000000000000000000000000000000000000000000000815260040180806020018281038252602e815260200180613879602e913960400191505060405180910390fd5b60008060019054906101000a900460ff1615905080156115fd576001600060016101000a81548160ff02191690831515021790555060016000806101000a81548160ff0219169083151502179055505b6116716040518060400160405280601781526020017f48617368696e6b204175746f677261706820546f6b656e0000000000000000008152506040518060400160405280600481526020017f5349474e00000000000000000000000000000000000000000000000000000000815250612227565b80156116925760008060016101000a81548160ff0219169083151502179055505b50565b6060606b8054600181600116156101000203166002900480601f01602080910402602001604051908101604052809291908181526020018280546001816001161561010002031660029004801561172d5780601f106117025761010080835404028352916020019161172d565b820191906000526020600020905b81548152906001019060200180831161171057829003601f168201915b5050505050905090565b61173f611ce7565b73ffffffffffffffffffffffffffffffffffffffff168273ffffffffffffffffffffffffffffffffffffffff1614156117e0576040517f08c379a00000000000000000000000000000000000000000000000000000000081526004018080602001828103825260198152602001807f4552433732313a20617070726f766520746f2063616c6c65720000000000000081525060200191505060405180910390fd5b80606960006117ed611ce7565b73ffffffffffffffffffffffffffffffffffffffff1673ffffffffffffffffffffffffffffffffffffffff16815260200190815260200160002060008473ffffffffffffffffffffffffffffffffffffffff1673ffffffffffffffffffffffffffffffffffffffff16815260200190815260200160002060006101000a81548160ff0219169083151502179055508173ffffffffffffffffffffffffffffffffffffffff1661189a611ce7565b73ffffffffffffffffffffffffffffffffffffffff167f17307eab39ab6107e8899845ad3d59bd9653f200f220920489ca2b5937696c318360405180821515815260200191505060405180910390a35050565b6118fe6118f8611ce7565b83611e65565b611953576040517f08c379a000000000000000000000000000000000000000000000000000000000815260040180806020018281038252603181526020018061399a6031913960400191505060405180910390fd5b61195f84848484612341565b50505050565b606061197082611cca565b6119c5576040517f08c379a000000000000000000000000000000000000000000000000000000000815260040180806020018281038252602f81526020018061394a602f913960400191505060405180910390fd5b6060606c60008481526020019081526020016000208054600181600116156101000203166002900480601f016020809104026020016040519081016040528092919081815260200182805460018160011615610100020316600290048015611a6e5780601f10611a4357610100808354040283529160200191611a6e565b820191906000526020600020905b815481529060010190602001808311611a5157829003601f168201915b505050505090506060611a7f6113ac565b9050600081511415611a95578192505050611c31565b600082511115611b665780826040516020018083805190602001908083835b60208310611ad75780518252602082019150602081019050602083039250611ab4565b6001836020036101000a03801982511681845116808217855250505050505090500182805190602001908083835b60208310611b285780518252602082019150602081019050602083039250611b05565b6001836020036101000a0380198251168184511680821785525050505050509050019250505060405160208183030381529060405292505050611c31565b80611b70856123b3565b6040516020018083805190602001908083835b60208310611ba65780518252602082019150602081019050602083039250611b83565b6001836020036101000a03801982511681845116808217855250505050505090500182805190602001908083835b60208310611bf75780518252602082019150602081019050602083039250611bd4565b6001836020036101000a03801982511681845116808217855250505050505090500192505050604051602081830303815290604052925050505b919050565b6000606960008473ffffffffffffffffffffffffffffffffffffffff1673ffffffffffffffffffffffffffffffffffffffff16815260200190815260200160002060008373ffffffffffffffffffffffffffffffffffffffff1673ffffffffffffffffffffffffffffffffffffffff16815260200190815260200160002060009054906101000a900460ff16905092915050565b6000611ce08260666124fa90919063ffffffff16565b9050919050565b600033905090565b816068600083815260200190815260200160002060006101000a81548173ffffffffffffffffffffffffffffffffffffffff021916908373ffffffffffffffffffffffffffffffffffffffff160217905550808273ffffffffffffffffffffffffffffffffffffffff16611d6283611375565b73ffffffffffffffffffffffffffffffffffffffff167f8c5be1e5ebec7d5bd14f71427d1e84f3dd0314c0f7b2291e5b200ac8c7c3b92560405160405180910390a45050565b6000611db682600001612514565b9050919050565b611dd7828260405180602001604052806000815250612525565b5050565b611de482611cca565b611e39576040517f08c379a000000000000000000000000000000000000000000000000000000000815260040180806020018281038252602c8152602001806138f5602c913960400191505060405180910390fd5b80606c60008481526020019081526020016000209080519060200190611e6092919061364b565b505050565b6000611e7082611cca565b611ec5576040517f08c379a000000000000000000000000000000000000000000000000000000000815260040180806020018281038252602c8152602001806137c2602c913960400191505060405180910390fd5b6000611ed083611375565b90508073ffffffffffffffffffffffffffffffffffffffff168473ffffffffffffffffffffffffffffffffffffffff161480611f3f57508373ffffffffffffffffffffffffffffffffffffffff16611f2784610cea565b73ffffffffffffffffffffffffffffffffffffffff16145b80611f505750611f4f8185611c36565b5b91505092915050565b8273ffffffffffffffffffffffffffffffffffffffff16611f7982611375565b73ffffffffffffffffffffffffffffffffffffffff1614611fe5576040517f08c379a00000000000000000000000000000000000000000000000000000000081526004018080602001828103825260298152602001806139216029913960400191505060405180910390fd5b600073ffffffffffffffffffffffffffffffffffffffff168273ffffffffffffffffffffffffffffffffffffffff16141561206b576040517f08c379a00000000000000000000000000000000000000000000000000000000081526004018080602001828103825260248152602001806137786024913960400191505060405180910390fd5b612076838383612596565b612081600082611cef565b6120d281606560008673ffffffffffffffffffffffffffffffffffffffff1673ffffffffffffffffffffffffffffffffffffffff16815260200190815260200160002061259b90919063ffffffff16565b5061212481606560008573ffffffffffffffffffffffffffffffffffffffff1673ffffffffffffffffffffffffffffffffffffffff1681526020019081526020016000206125b590919063ffffffff16565b5061213b818360666125cf9092919063ffffffff16565b50808273ffffffffffffffffffffffffffffffffffffffff168473ffffffffffffffffffffffffffffffffffffffff167fddf252ad1be2c89b69c2b068fc378daa952ba7f163c4a11628f55a4df523b3ef60405160405180910390a4505050565b60006121ab8360000183612604565b60001c905092915050565b6000806000806121c98660000186612687565b915091508160001c8160001c9350935050509250929050565b60006121f5846000018460001b84612720565b60001c90509392505050565b600061220f82600001612816565b9050919050565b600061222130612827565b15905090565b600060019054906101000a900460ff16806122465750612245612216565b5b8061225c575060008054906101000a900460ff16155b6122b1576040517f08c379a000000000000000000000000000000000000000000000000000000000815260040180806020018281038252602e815260200180613879602e913960400191505060405180910390fd5b60008060019054906101000a900460ff161590508015612301576001600060016101000a81548160ff02191690831515021790555060016000806101000a81548160ff0219169083151502179055505b61230961283a565b612311612938565b61231b8383612a46565b801561233c5760008060016101000a81548160ff0219169083151502179055505b505050565b61234c848484611f59565b61235884848484612ba4565b6123ad576040517f08c379a00000000000000000000000000000000000000000000000000000000081526004018080602001828103825260328152602001806137466032913960400191505060405180910390fd5b50505050565b606060008214156123fb576040518060400160405280600181526020017f300000000000000000000000000000000000000000000000000000000000000081525090506124f5565b600082905060005b60008214612425578080600101915050600a828161241d57fe5b049150612403565b60608167ffffffffffffffff8111801561243e57600080fd5b506040519080825280601f01601f1916602001820160405280156124715781602001600182028036833780820191505090505b50905060006001830390508593505b600084146124ed57600a848161249257fe5b0660300160f81b828280600190039350815181106124ac57fe5b60200101907effffffffffffffffffffffffffffffffffffffffffffffffffffffffffffff1916908160001a905350600a84816124e557fe5b049350612480565b819450505050505b919050565b600061250c836000018360001b612dbd565b905092915050565b600081600001805490509050919050565b61252f8383612de0565b61253c6000848484612ba4565b612591576040517f08c379a00000000000000000000000000000000000000000000000000000000081526004018080602001828103825260328152602001806137466032913960400191505060405180910390fd5b505050565b505050565b60006125ad836000018360001b612fd4565b905092915050565b60006125c7836000018360001b6130bc565b905092915050565b60006125fb846000018460001b8473ffffffffffffffffffffffffffffffffffffffff1660001b61312c565b90509392505050565b600081836000018054905011612665576040517f08c379a00000000000000000000000000000000000000000000000000000000081526004018080602001828103825260228152602001806137246022913960400191505060405180910390fd5b82600001828154811061267457fe5b9060005260206000200154905092915050565b600080828460000180549050116126e9576040517f08c379a00000000000000000000000000000000000000000000000000000000081526004018080602001828103825260228152602001806138a76022913960400191505060405180910390fd5b60008460000184815481106126fa57fe5b906000526020600020906002020190508060000154816001015492509250509250929050565b600080846001016000858152602001908152602001600020549050600081141583906127e7576040517f08c379a00000000000000000000000000000000000000000000000000000000081526004018080602001828103825283818151815260200191508051906020019080838360005b838110156127ac578082015181840152602081019050612791565b50505050905090810190601f1680156127d95780820380516001836020036101000a031916815260200191505b509250505060405180910390fd5b508460000160018203815481106127fa57fe5b9060005260206000209060020201600101549150509392505050565b600081600001805490509050919050565b600080823b905060008111915050919050565b600060019054906101000a900460ff16806128595750612858612216565b5b8061286f575060008054906101000a900460ff16155b6128c4576040517f08c379a000000000000000000000000000000000000000000000000000000000815260040180806020018281038252602e815260200180613879602e913960400191505060405180910390fd5b60008060019054906101000a900460ff161590508015612914576001600060016101000a81548160ff02191690831515021790555060016000806101000a81548160ff0219169083151502179055505b80156129355760008060016101000a81548160ff0219169083151502179055505b50565b600060019054906101000a900460ff16806129575750612956612216565b5b8061296d575060008054906101000a900460ff16155b6129c2576040517f08c379a000000000000000000000000000000000000000000000000000000000815260040180806020018281038252602e815260200180613879602e913960400191505060405180910390fd5b60008060019054906101000a900460ff161590508015612a12576001600060016101000a81548160ff02191690831515021790555060016000806101000a81548160ff0219169083151502179055505b612a226301ffc9a760e01b613208565b8015612a435760008060016101000a81548160ff0219169083151502179055505b50565b600060019054906101000a900460ff1680612a655750612a64612216565b5b80612a7b575060008054906101000a900460ff16155b612ad0576040517f08c379a000000000000000000000000000000000000000000000000000000000815260040180806020018281038252602e815260200180613879602e913960400191505060405180910390fd5b60008060019054906101000a900460ff161590508015612b20576001600060016101000a81548160ff02191690831515021790555060016000806101000a81548160ff0219169083151502179055505b82606a9080519060200190612b3692919061364b565b5081606b9080519060200190612b4d92919061364b565b50612b5e6380ac58cd60e01b613208565b612b6e635b5e139f60e01b613208565b612b7e63780e9d6360e01b613208565b8015612b9f5760008060016101000a81548160ff0219169083151502179055505b505050565b6000612bc58473ffffffffffffffffffffffffffffffffffffffff16612827565b612bd25760019050612db5565b6060612d3c63150b7a0260e01b612be7611ce7565b888787604051602401808573ffffffffffffffffffffffffffffffffffffffff1681526020018473ffffffffffffffffffffffffffffffffffffffff16815260200183815260200180602001828103825283818151815260200191508051906020019080838360005b83811015612c6b578082015181840152602081019050612c50565b50505050905090810190601f168015612c985780820380516001836020036101000a031916815260200191505b5095505050505050604051602081830303815290604052907bffffffffffffffffffffffffffffffffffffffffffffffffffffffff19166020820180517bffffffffffffffffffffffffffffffffffffffffffffffffffffffff8381831617835250505050604051806060016040528060328152602001613746603291398773ffffffffffffffffffffffffffffffffffffffff166133119092919063ffffffff16565b90506000818060200190516020811015612d5557600080fd5b8101908080519060200190929190505050905063150b7a0260e01b7bffffffffffffffffffffffffffffffffffffffffffffffffffffffff1916817bffffffffffffffffffffffffffffffffffffffffffffffffffffffff191614925050505b949350505050565b600080836001016000848152602001908152602001600020541415905092915050565b600073ffffffffffffffffffffffffffffffffffffffff168273ffffffffffffffffffffffffffffffffffffffff161415612e83576040517f08c379a00000000000000000000000000000000000000000000000000000000081526004018080602001828103825260208152602001807f4552433732313a206d696e7420746f20746865207a65726f206164647265737381525060200191505060405180910390fd5b612e8c81611cca565b15612eff576040517f08c379a000000000000000000000000000000000000000000000000000000000815260040180806020018281038252601c8152602001807f4552433732313a20746f6b656e20616c7265616479206d696e7465640000000081525060200191505060405180910390fd5b612f0b60008383612596565b612f5c81606560008573ffffffffffffffffffffffffffffffffffffffff1673ffffffffffffffffffffffffffffffffffffffff1681526020019081526020016000206125b590919063ffffffff16565b50612f73818360666125cf9092919063ffffffff16565b50808273ffffffffffffffffffffffffffffffffffffffff16600073ffffffffffffffffffffffffffffffffffffffff167fddf252ad1be2c89b69c2b068fc378daa952ba7f163c4a11628f55a4df523b3ef60405160405180910390a45050565b600080836001016000848152602001908152602001600020549050600081146130b0576000600182039050600060018660000180549050039050600086600001828154811061301f57fe5b906000526020600020015490508087600001848154811061303c57fe5b906000526020600020018190555060018301876001016000838152602001908152602001600020819055508660000180548061307457fe5b600190038181906000526020600020016000905590558660010160008781526020019081526020016000206000905560019450505050506130b6565b60009150505b92915050565b60006130c88383613329565b613121578260000182908060018154018082558091505060019003906000526020600020016000909190919091505582600001805490508360010160008481526020019081526020016000208190555060019050613126565b600090505b92915050565b60008084600101600085815260200190815260200160002054905060008114156131d357846000016040518060400160405280868152602001858152509080600181540180825580915050600190039060005260206000209060020201600090919091909150600082015181600001556020820151816001015550508460000180549050856001016000868152602001908152602001600020819055506001915050613201565b828560000160018303815481106131e657fe5b90600052602060002090600202016001018190555060009150505b9392505050565b63ffffffff60e01b817bffffffffffffffffffffffffffffffffffffffffffffffffffffffff191614156132a4576040517f08c379a000000000000000000000000000000000000000000000000000000000815260040180806020018281038252601c8152602001807f4552433136353a20696e76616c696420696e746572666163652069640000000081525060200191505060405180910390fd5b600160336000837bffffffffffffffffffffffffffffffffffffffffffffffffffffffff19167bffffffffffffffffffffffffffffffffffffffffffffffffffffffff1916815260200190815260200160002060006101000a81548160ff02191690831515021790555050565b6060613320848460008561334c565b90509392505050565b600080836001016000848152602001908152602001600020541415905092915050565b6060824710156133a7576040517f08c379a000000000000000000000000000000000000000000000000000000000815260040180806020018281038252602681526020018061379c6026913960400191505060405180910390fd5b6133b085612827565b613422576040517f08c379a000000000000000000000000000000000000000000000000000000000815260040180806020018281038252601d8152602001807f416464726573733a2063616c6c20746f206e6f6e2d636f6e747261637400000081525060200191505060405180910390fd5b600060608673ffffffffffffffffffffffffffffffffffffffff1685876040518082805190602001908083835b60208310613472578051825260208201915060208101905060208303925061344f565b6001836020036101000a03801982511681845116808217855250505050505090500191505060006040518083038185875af1925050503d80600081146134d4576040519150601f19603f3d011682016040523d82523d6000602084013e6134d9565b606091505b50915091506134e98282866134f5565b92505050949350505050565b60608315613505578290506135ba565b6000835111156135185782518084602001fd5b816040517f08c379a00000000000000000000000000000000000000000000000000000000081526004018080602001828103825283818151815260200191508051906020019080838360005b8381101561357f578082015181840152602081019050613564565b50505050905090810190601f1680156135ac5780820380516001836020036101000a031916815260200191505b509250505060405180910390fd5b9392505050565b82805482825590600052602060002090810192821561363a579160200282015b828111156136395782518260006101000a81548173ffffffffffffffffffffffffffffffffffffffff021916908373ffffffffffffffffffffffffffffffffffffffff160217905550916020019190600101906135e1565b5b50905061364791906136cb565b5090565b828054600181600116156101000203166002900490600052602060002090601f016020900481019282601f1061368c57805160ff19168380011785556136ba565b828001600101855582156136ba579182015b828111156136b957825182559160200191906001019061369e565b5b5090506136c79190613706565b5090565b5b8082111561370257600081816101000a81549073ffffffffffffffffffffffffffffffffffffffff0219169055506001016136cc565b5090565b5b8082111561371f576000816000905550600101613707565b509056fe456e756d657261626c655365743a20696e646578206f7574206f6620626f756e64734552433732313a207472616e7366657220746f206e6f6e20455243373231526563656976657220696d706c656d656e7465724552433732313a207472616e7366657220746f20746865207a65726f2061646472657373416464726573733a20696e73756666696369656e742062616c616e636520666f722063616c6c4552433732313a206f70657261746f7220717565727920666f72206e6f6e6578697374656e7420746f6b656e4552433732313a20617070726f76652063616c6c6572206973206e6f74206f776e6572206e6f7220617070726f76656420666f7220616c6c4552433732313a2062616c616e636520717565727920666f7220746865207a65726f20616464726573734552433732313a206f776e657220717565727920666f72206e6f6e6578697374656e7420746f6b656e496e697469616c697a61626c653a20636f6e747261637420697320616c726561647920696e697469616c697a6564456e756d657261626c654d61703a20696e646578206f7574206f6620626f756e64734552433732313a20617070726f76656420717565727920666f72206e6f6e6578697374656e7420746f6b656e4552433732314d657461646174613a2055524920736574206f66206e6f6e6578697374656e7420746f6b656e4552433732313a207472616e73666572206f6620746f6b656e2074686174206973206e6f74206f776e4552433732314d657461646174613a2055524920717565727920666f72206e6f6e6578697374656e7420746f6b656e4552433732313a20617070726f76616c20746f2063757272656e74206f776e65724552433732313a207472616e736665722063616c6c6572206973206e6f74206f776e6572206e6f7220617070726f766564a264697066735822122082ca5b7d12389a40950bb4cc7f0aebf90d494f5007e72169da462b89e24090ff64736f6c63430007000033",
  "linkReferences": {},
  "deployedLinkReferences": {}
}