{
  "_format": "hh-sol-artifact-1",
  "contractName": "CelebrityContract",
  "sourceName": "contracts/CelebrityContract.sol",
  "abi": [
    {
      "anonymous": false,
      "inputs": [
        {
          "indexed": true,
          "internalType": "address",
          "name": "owner",
          "type": "address"
        },
        {
          "indexed": false,
          "internalType": "string",
          "name": "name",
          "type": "string"
        },
        {
          "indexed": false,
          "internalType": "uint256",
          "name": "price",
          "type": "uint256"
        },
        {
          "indexed": false,
          "internalType": "uint256",
          "name": "responseTime",
          "type": "uint256"
        }
      ],
      "name": "CelebrityCreated",
      "type": "event"
    },
    {
      "anonymous": false,
      "inputs": [
        {
          "indexed": true,
          "internalType": "address",
          "name": "owner",
          "type": "address"
        }
      ],
      "name": "CelebrityDeleted",
      "type": "event"
    },
    {
      "anonymous": false,
      "inputs": [
        {
          "indexed": true,
          "internalType": "address",
          "name": "owner",
          "type": "address"
        },
        {
          "indexed": false,
          "internalType": "string",
          "name": "name",
          "type": "string"
        },
        {
          "indexed": false,
          "internalType": "uint256",
          "name": "price",
          "type": "uint256"
        },
        {
          "indexed": false,
          "internalType": "uint256",
          "name": "responseTime",
          "type": "uint256"
        }
      ],
      "name": "CelebrityUpdated",
      "type": "event"
    },
    {
      "inputs": [
        {
          "internalType": "address",
          "name": "",
          "type": "address"
        }
      ],
      "name": "celebrities",
      "outputs": [
        {
          "internalType": "string",
          "name": "name",
          "type": "string"
        },
        {
          "internalType": "uint256",
          "name": "price",
          "type": "uint256"
        },
        {
          "internalType": "uint256",
          "name": "responseTime",
          "type": "uint256"
        },
        {
          "internalType": "bool",
          "name": "exists",
          "type": "bool"
        }
      ],
      "stateMutability": "view",
      "type": "function"
    },
    {
      "inputs": [
        {
          "internalType": "string",
          "name": "name",
          "type": "string"
        },
        {
          "internalType": "uint256",
          "name": "price",
          "type": "uint256"
        },
        {
          "internalType": "uint256",
          "name": "responseTime",
          "type": "uint256"
        }
      ],
      "name": "createCelebrity",
      "outputs": [],
      "stateMutability": "nonpayable",
      "type": "function"
    },
    {
      "inputs": [
        {
          "internalType": "address",
          "name": "addr",
          "type": "address"
        }
      ],
      "name": "deleteCelebrity",
      "outputs": [],
      "stateMutability": "nonpayable",
      "type": "function"
    },
    {
      "inputs": [],
      "name": "getTotalSupply",
      "outputs": [
        {
          "internalType": "uint256",
          "name": "",
          "type": "uint256"
        }
      ],
      "stateMutability": "view",
      "type": "function"
    },
    {
      "inputs": [],
      "name": "initialize",
      "outputs": [],
      "stateMutability": "nonpayable",
      "type": "function"
    },
    {
      "inputs": [
        {
          "internalType": "string",
          "name": "name",
          "type": "string"
        },
        {
          "internalType": "uint256",
          "name": "price",
          "type": "uint256"
        },
        {
          "internalType": "uint256",
          "name": "responseTime",
          "type": "uint256"
        }
      ],
      "name": "updateCelebrity",
      "outputs": [],
      "stateMutability": "nonpayable",
      "type": "function"
    },
    {
      "inputs": [],
      "name": "version",
      "outputs": [
        {
          "internalType": "uint256",
          "name": "",
          "type": "uint256"
        }
      ],
      "stateMutability": "view",
      "type": "function"
    }
  ],
  "bytecode": "0x608060405234801561001057600080fd5b50610d48806100206000396000f3fe608060405234801561001057600080fd5b506004361061007d5760003560e01c8063829ae7971161005b578063829ae7971461017e578063b6f662f7146101c2578063c4e41b2214610291578063ccff1046146102af5761007d565b8063509d202c1461008257806354fd4d50146101565780638129fc1c14610174575b600080fd5b6100c46004803603602081101561009857600080fd5b81019080803573ffffffffffffffffffffffffffffffffffffffff16906020019092919050505061037e565b60405180806020018581526020018481526020018315158152602001828103825286818151815260200191508051906020019080838360005b838110156101185780820151818401526020810190506100fd565b50505050905090810190601f1680156101455780820380516001836020036101000a031916815260200191505b509550505050505060405180910390f35b61015e610453565b6040518082815260200191505060405180910390f35b61017c610459565b005b6101c06004803603602081101561019457600080fd5b81019080803573ffffffffffffffffffffffffffffffffffffffff16906020019092919050505061055f565b005b61028f600480360360608110156101d857600080fd5b81019080803590602001906401000000008111156101f557600080fd5b82018360208201111561020757600080fd5b8035906020019184600183028401116401000000008311171561022957600080fd5b91908080601f016020809104026020016040519081016040528093929190818152602001838380828437600081840152601f19601f820116905080830192505050505050509192919290803590602001909291908035906020019092919050505061078f565b005b61029961093c565b6040518082815260200191505060405180910390f35b61037c600480360360608110156102c557600080fd5b81019080803590602001906401000000008111156102e257600080fd5b8201836020820111156102f457600080fd5b8035906020019184600183028401116401000000008311171561031657600080fd5b91908080601f016020809104026020016040519081016040528093929190818152602001838380828437600081840152601f19601f8201169050808301925050505050505091929192908035906020019092919080359060200190929190505050610946565b005b6001602052806000526040600020600091509050806000018054600181600116156101000203166002900480601f01602080910402602001604051908101604052809291908181526020018280546001816001161561010002031660029004801561042a5780601f106103ff5761010080835404028352916020019161042a565b820191906000526020600020905b81548152906001019060200180831161040d57829003601f168201915b5050505050908060010154908060020154908060030160009054906101000a900460ff16905084565b60035481565b600060019054906101000a900460ff16806104785750610477610bb1565b5b8061048e575060008054906101000a900460ff16155b6104e3576040517f08c379a000000000000000000000000000000000000000000000000000000000815260040180806020018281038252602e815260200180610ce5602e913960400191505060405180910390fd5b60008060019054906101000a900460ff161590508015610533576001600060016101000a81548160ff02191690831515021790555060016000806101000a81548160ff0219169083151502179055505b6001600381905550801561055c5760008060016101000a81548160ff0219169083151502179055505b50565b3373ffffffffffffffffffffffffffffffffffffffff168173ffffffffffffffffffffffffffffffffffffffff1614610600576040517f08c379a00000000000000000000000000000000000000000000000000000000081526004018080602001828103825260158152602001807f596f7520617265206e6f7420746865206f776e6572000000000000000000000081525060200191505060405180910390fd5b600160003373ffffffffffffffffffffffffffffffffffffffff1673ffffffffffffffffffffffffffffffffffffffff16815260200190815260200160002060030160009054906101000a900460ff166106c2576040517f08c379a000000000000000000000000000000000000000000000000000000000815260040180806020018281038252601b8152602001807f54686973206164647265737320646f6573206e6f74206578697374000000000081525060200191505060405180910390fd5b600160008273ffffffffffffffffffffffffffffffffffffffff1673ffffffffffffffffffffffffffffffffffffffff168152602001908152602001600020600080820160006107129190610bd5565b600182016000905560028201600090556003820160006101000a81549060ff0219169055505060016002600082825403925050819055508073ffffffffffffffffffffffffffffffffffffffff167f9a0087094074d908f64f71c80636422dc52eb8ab2153507c3636969b2f408fb060405160405180910390a250565b82600160003373ffffffffffffffffffffffffffffffffffffffff1673ffffffffffffffffffffffffffffffffffffffff16815260200190815260200160002060000190805190602001906107e5929190610c1d565b5081600160003373ffffffffffffffffffffffffffffffffffffffff1673ffffffffffffffffffffffffffffffffffffffff1681526020019081526020016000206001018190555080600160003373ffffffffffffffffffffffffffffffffffffffff1673ffffffffffffffffffffffffffffffffffffffff168152602001908152602001600020600201819055503373ffffffffffffffffffffffffffffffffffffffff167f3acb17ab280ddc13698d1bde653a6548188aa07bd703909ab385ec907336c2628484846040518080602001848152602001838152602001828103825285818151815260200191508051906020019080838360005b838110156108fb5780820151818401526020810190506108e0565b50505050905090810190601f1680156109285780820380516001836020036101000a031916815260200191505b5094505050505060405180910390a2505050565b6000600254905090565b600160003373ffffffffffffffffffffffffffffffffffffffff1673ffffffffffffffffffffffffffffffffffffffff16815260200190815260200160002060030160009054906101000a900460ff1615610a09576040517f08c379a000000000000000000000000000000000000000000000000000000000815260040180806020018281038252601b8152602001807f54686973206164647265737320616c726561647920657869737473000000000081525060200191505060405180910390fd5b610a11610c9d565b604051806080016040528085815260200184815260200183815260200160011515815250905080600160003373ffffffffffffffffffffffffffffffffffffffff1673ffffffffffffffffffffffffffffffffffffffff1681526020019081526020016000206000820151816000019080519060200190610a93929190610c1d565b50602082015181600101556040820151816002015560608201518160030160006101000a81548160ff02191690831515021790555090505060016002600082825401925050819055503373ffffffffffffffffffffffffffffffffffffffff167f2d11312ea58296534f84c0d7e129483adcd2da500aa3e71fb42ce8a426e732708260000151836020015184604001516040518080602001848152602001838152602001828103825285818151815260200191508051906020019080838360005b83811015610b6f578082015181840152602081019050610b54565b50505050905090810190601f168015610b9c5780820380516001836020036101000a031916815260200191505b5094505050505060405180910390a250505050565b6000610bbc30610bc2565b15905090565b600080823b905060008111915050919050565b50805460018160011615610100020316600290046000825580601f10610bfb5750610c1a565b601f016020900490600052602060002090810190610c199190610cc7565b5b50565b828054600181600116156101000203166002900490600052602060002090601f016020900481019282601f10610c5e57805160ff1916838001178555610c8c565b82800160010185558215610c8c579182015b82811115610c8b578251825591602001919060010190610c70565b5b509050610c999190610cc7565b5090565b60405180608001604052806060815260200160008152602001600081526020016000151581525090565b5b80821115610ce0576000816000905550600101610cc8565b509056fe496e697469616c697a61626c653a20636f6e747261637420697320616c726561647920696e697469616c697a6564a2646970667358221220cf7ca237928ce50e479caa25e1456db985e32f54493ff5ea515016f5ea6693a464736f6c63430007000033",
  "linkReferences": {},
  "deployedLinkReferences": {}
}