{
  "_format": "hh-sol-artifact-1",
  "contractName": "RequestContract",
  "sourceName": "contracts/RequestContract.sol",
  "abi": [
    {
      "anonymous": false,
      "inputs": [
        {
          "indexed": false,
          "internalType": "uint256",
          "name": "feePercent",
          "type": "uint256"
        }
      ],
      "name": "FeePercentChanged",
      "type": "event"
    },
    {
      "anonymous": false,
      "inputs": [
        {
          "indexed": true,
          "internalType": "address",
          "name": "previousOwner",
          "type": "address"
        },
        {
          "indexed": true,
          "internalType": "address",
          "name": "newOwner",
          "type": "address"
        }
      ],
      "name": "OwnershipTransferred",
      "type": "event"
    },
    {
      "anonymous": false,
      "inputs": [
        {
          "indexed": false,
          "internalType": "uint256",
          "name": "id",
          "type": "uint256"
        },
        {
          "indexed": true,
          "internalType": "address",
          "name": "from",
          "type": "address"
        },
        {
          "indexed": true,
          "internalType": "address",
          "name": "to",
          "type": "address"
        },
        {
          "indexed": false,
          "internalType": "uint256",
          "name": "price",
          "type": "uint256"
        },
        {
          "indexed": false,
          "internalType": "uint256",
          "name": "responseTime",
          "type": "uint256"
        },
        {
          "indexed": false,
          "internalType": "uint256",
          "name": "created",
          "type": "uint256"
        }
      ],
      "name": "RequestCreated",
      "type": "event"
    },
    {
      "anonymous": false,
      "inputs": [
        {
          "indexed": false,
          "internalType": "uint256",
          "name": "id",
          "type": "uint256"
        },
        {
          "indexed": true,
          "internalType": "address",
          "name": "from",
          "type": "address"
        },
        {
          "indexed": true,
          "internalType": "address",
          "name": "to",
          "type": "address"
        },
        {
          "indexed": false,
          "internalType": "uint256",
          "name": "price",
          "type": "uint256"
        },
        {
          "indexed": false,
          "internalType": "uint256",
          "name": "responseTime",
          "type": "uint256"
        },
        {
          "indexed": false,
          "internalType": "uint256",
          "name": "created",
          "type": "uint256"
        }
      ],
      "name": "RequestDeleted",
      "type": "event"
    },
    {
      "anonymous": false,
      "inputs": [
        {
          "indexed": false,
          "internalType": "uint256",
          "name": "id",
          "type": "uint256"
        },
        {
          "indexed": true,
          "internalType": "address",
          "name": "from",
          "type": "address"
        },
        {
          "indexed": true,
          "internalType": "address",
          "name": "to",
          "type": "address"
        },
        {
          "indexed": false,
          "internalType": "uint256",
          "name": "price",
          "type": "uint256"
        },
        {
          "indexed": false,
          "internalType": "uint256",
          "name": "responseTime",
          "type": "uint256"
        },
        {
          "indexed": false,
          "internalType": "uint256",
          "name": "created",
          "type": "uint256"
        },
        {
          "indexed": false,
          "internalType": "string",
          "name": "imageURI",
          "type": "string"
        },
        {
          "indexed": false,
          "internalType": "string",
          "name": "metadataURI",
          "type": "string"
        }
      ],
      "name": "RequestSigned",
      "type": "event"
    },
    {
      "inputs": [
        {
          "internalType": "address",
          "name": "to",
          "type": "address"
        },
        {
          "internalType": "uint256",
          "name": "responseTime",
          "type": "uint256"
        }
      ],
      "name": "createRequest",
      "outputs": [],
      "stateMutability": "payable",
      "type": "function"
    },
    {
      "inputs": [
        {
          "internalType": "uint256",
          "name": "id",
          "type": "uint256"
        }
      ],
      "name": "deleteRequest",
      "outputs": [],
      "stateMutability": "nonpayable",
      "type": "function"
    },
    {
      "inputs": [],
      "name": "feePercent",
      "outputs": [
        {
          "internalType": "uint256",
          "name": "",
          "type": "uint256"
        }
      ],
      "stateMutability": "view",
      "type": "function"
    },
    {
      "inputs": [],
      "name": "getBalance",
      "outputs": [
        {
          "internalType": "uint256",
          "name": "",
          "type": "uint256"
        }
      ],
      "stateMutability": "view",
      "type": "function"
    },
    {
      "inputs": [
        {
          "internalType": "address",
          "name": "addr",
          "type": "address"
        }
      ],
      "name": "getRequesterBalance",
      "outputs": [
        {
          "internalType": "uint256",
          "name": "",
          "type": "uint256"
        }
      ],
      "stateMutability": "view",
      "type": "function"
    },
    {
      "inputs": [],
      "name": "getTotalSupply",
      "outputs": [
        {
          "internalType": "uint256",
          "name": "",
          "type": "uint256"
        }
      ],
      "stateMutability": "view",
      "type": "function"
    },
    {
      "inputs": [
        {
          "internalType": "address",
          "name": "addr",
          "type": "address"
        }
      ],
      "name": "getVIPBalance",
      "outputs": [
        {
          "internalType": "uint256",
          "name": "",
          "type": "uint256"
        }
      ],
      "stateMutability": "view",
      "type": "function"
    },
    {
      "inputs": [
        {
          "internalType": "address",
          "name": "_autographContract",
          "type": "address"
        }
      ],
      "name": "initialize",
      "outputs": [],
      "stateMutability": "nonpayable",
      "type": "function"
    },
    {
      "inputs": [],
      "name": "numberOfPendingRequests",
      "outputs": [
        {
          "internalType": "uint256",
          "name": "",
          "type": "uint256"
        }
      ],
      "stateMutability": "view",
      "type": "function"
    },
    {
      "inputs": [],
      "name": "owner",
      "outputs": [
        {
          "internalType": "address",
          "name": "",
          "type": "address"
        }
      ],
      "stateMutability": "view",
      "type": "function"
    },
    {
      "inputs": [],
      "name": "renounceOwnership",
      "outputs": [],
      "stateMutability": "nonpayable",
      "type": "function"
    },
    {
      "inputs": [
        {
          "internalType": "uint256",
          "name": "id",
          "type": "uint256"
        }
      ],
      "name": "requestIsLocked",
      "outputs": [
        {
          "internalType": "bool",
          "name": "",
          "type": "bool"
        }
      ],
      "stateMutability": "view",
      "type": "function"
    },
    {
      "inputs": [
        {
          "internalType": "uint256",
          "name": "",
          "type": "uint256"
        }
      ],
      "name": "requests",
      "outputs": [
        {
          "internalType": "address",
          "name": "from",
          "type": "address"
        },
        {
          "internalType": "address",
          "name": "to",
          "type": "address"
        },
        {
          "internalType": "uint256",
          "name": "price",
          "type": "uint256"
        },
        {
          "internalType": "uint256",
          "name": "responseTime",
          "type": "uint256"
        },
        {
          "internalType": "uint256",
          "name": "created",
          "type": "uint256"
        }
      ],
      "stateMutability": "view",
      "type": "function"
    },
    {
      "inputs": [
        {
          "internalType": "uint256",
          "name": "_feePercent",
          "type": "uint256"
        }
      ],
      "name": "setFeePercent",
      "outputs": [],
      "stateMutability": "nonpayable",
      "type": "function"
    },
    {
      "inputs": [
        {
          "internalType": "uint256",
          "name": "id",
          "type": "uint256"
        },
        {
          "internalType": "string",
          "name": "imageURI",
          "type": "string"
        },
        {
          "internalType": "string",
          "name": "metadataURI",
          "type": "string"
        }
      ],
      "name": "signRequest",
      "outputs": [],
      "stateMutability": "nonpayable",
      "type": "function"
    },
    {
      "inputs": [
        {
          "internalType": "address",
          "name": "newOwner",
          "type": "address"
        }
      ],
      "name": "transferOwnership",
      "outputs": [],
      "stateMutability": "nonpayable",
      "type": "function"
    }
  ],
  "bytecode": "0x608060405234801561001057600080fd5b50612524806100206000396000f3fe6080604052600436106100f35760003560e01c806381d12c581161008a578063cb74db1111610059578063cb74db1114610552578063e9a21bcd146105a3578063edc08925146105de578063f2fde38b1461062c576100f3565b806381d12c58146103fe5780638da5cb5b14610495578063c4d66de8146104d6578063c4e41b2214610527576100f3565b8063670b1499116100c6578063670b149914610356578063715018a6146103815780637ce3489b146103985780637fd6f15c146103d3576100f3565b806312065fe0146100f857806323276479146101235780632686694f146101885780633acd1494146102f1575b600080fd5b34801561010457600080fd5b5061010d61067d565b6040518082815260200191505060405180910390f35b34801561012f57600080fd5b506101726004803603602081101561014657600080fd5b81019080803573ffffffffffffffffffffffffffffffffffffffff169060200190929190505050610685565b6040518082815260200191505060405180910390f35b34801561019457600080fd5b506102ef600480360360608110156101ab57600080fd5b8101908080359060200190929190803590602001906401000000008111156101d257600080fd5b8201836020820111156101e457600080fd5b8035906020019184600183028401116401000000008311171561020657600080fd5b91908080601f016020809104026020016040519081016040528093929190818152602001838380828437600081840152601f19601f8201169050808301925050505050505091929192908035906020019064010000000081111561026957600080fd5b82018360208201111561027b57600080fd5b8035906020019184600183028401116401000000008311171561029d57600080fd5b91908080601f016020809104026020016040519081016040528093929190818152602001838380828437600081840152601f19601f820116905080830192505050505050509192919290505050610752565b005b3480156102fd57600080fd5b506103406004803603602081101561031457600080fd5b81019080803573ffffffffffffffffffffffffffffffffffffffff169060200190929190505050610fb9565b6040518082815260200191505060405180910390f35b34801561036257600080fd5b5061036b611086565b6040518082815260200191505060405180910390f35b34801561038d57600080fd5b5061039661108c565b005b3480156103a457600080fd5b506103d1600480360360208110156103bb57600080fd5b81019080803590602001909291905050506111fc565b005b3480156103df57600080fd5b506103e86112ee565b6040518082815260200191505060405180910390f35b34801561040a57600080fd5b506104376004803603602081101561042157600080fd5b81019080803590602001909291905050506112f4565b604051808673ffffffffffffffffffffffffffffffffffffffff1681526020018573ffffffffffffffffffffffffffffffffffffffff1681526020018481526020018381526020018281526020019550505050505060405180910390f35b3480156104a157600080fd5b506104aa611377565b604051808273ffffffffffffffffffffffffffffffffffffffff16815260200191505060405180910390f35b3480156104e257600080fd5b50610525600480360360208110156104f957600080fd5b81019080803573ffffffffffffffffffffffffffffffffffffffff1690602001909291905050506113a1565b005b34801561053357600080fd5b5061053c6114f1565b6040518082815260200191505060405180910390f35b34801561055e57600080fd5b5061058b6004803603602081101561057557600080fd5b81019080803590602001909291905050506114fe565b60405180821515815260200191505060405180910390f35b3480156105af57600080fd5b506105dc600480360360208110156105c657600080fd5b8101908080359060200190929190505050611614565b005b61062a600480360360408110156105f457600080fd5b81019080803573ffffffffffffffffffffffffffffffffffffffff16906020019092919080359060200190929190505050611a19565b005b34801561063857600080fd5b5061067b6004803603602081101561064f57600080fd5b81019080803573ffffffffffffffffffffffffffffffffffffffff169060200190929190505050611d9b565b005b600047905090565b60003373ffffffffffffffffffffffffffffffffffffffff168273ffffffffffffffffffffffffffffffffffffffff161461070b576040517f08c379a000000000000000000000000000000000000000000000000000000000815260040180806020018281038252602481526020018061241d6024913960400191505060405180910390fd5b606860003373ffffffffffffffffffffffffffffffffffffffff1673ffffffffffffffffffffffffffffffffffffffff168152602001908152602001600020549050919050565b61075a61236f565b6066848154811061076757fe5b90600052602060002090600502016040518060a00160405290816000820160009054906101000a900473ffffffffffffffffffffffffffffffffffffffff1673ffffffffffffffffffffffffffffffffffffffff1673ffffffffffffffffffffffffffffffffffffffff1681526020016001820160009054906101000a900473ffffffffffffffffffffffffffffffffffffffff1673ffffffffffffffffffffffffffffffffffffffff1673ffffffffffffffffffffffffffffffffffffffff168152602001600282015481526020016003820154815260200160048201548152505090503373ffffffffffffffffffffffffffffffffffffffff16816020015173ffffffffffffffffffffffffffffffffffffffff16146108d4576040517f08c379a00000000000000000000000000000000000000000000000000000000081526004018080602001828103825260288152602001806124c76028913960400191505060405180910390fd5b8060400151471015610931576040517f08c379a000000000000000000000000000000000000000000000000000000000815260040180806020018281038252602c8152602001806123cb602c913960400191505060405180910390fd5b6000606560009054906101000a900473ffffffffffffffffffffffffffffffffffffffff1673ffffffffffffffffffffffffffffffffffffffff16634cace35983600001513387876040518563ffffffff1660e01b8152600401808573ffffffffffffffffffffffffffffffffffffffff1681526020018473ffffffffffffffffffffffffffffffffffffffff1681526020018060200180602001838103835285818151815260200191508051906020019080838360005b83811015610a045780820151818401526020810190506109e9565b50505050905090810190601f168015610a315780820380516001836020036101000a031916815260200191505b50838103825284818151815260200191508051906020019080838360005b83811015610a6a578082015181840152602081019050610a4f565b50505050905090810190601f168015610a975780820380516001836020036101000a031916815260200191505b509650505050505050602060405180830381600087803b158015610aba57600080fd5b505af1158015610ace573d6000803e3d6000fd5b505050506040513d6020811015610ae457600080fd5b81019080805190602001909291905050509050816000015173ffffffffffffffffffffffffffffffffffffffff16606560009054906101000a900473ffffffffffffffffffffffffffffffffffffffff1673ffffffffffffffffffffffffffffffffffffffff16636352211e836040518263ffffffff1660e01b81526004018082815260200191505060206040518083038186803b158015610b8557600080fd5b505afa158015610b99573d6000803e3d6000fd5b505050506040513d6020811015610baf57600080fd5b810190808051906020019092919050505073ffffffffffffffffffffffffffffffffffffffff1614610c49576040517f08c379a000000000000000000000000000000000000000000000000000000000815260040180806020018281038252601f8152602001807f546f6b656e20776173206e6f74206372656174656420636f72726563746c790081525060200191505060405180910390fd5b6000826020015190506000610c5c611377565b905060006064606a5486604001510281610c7257fe5b0490508173ffffffffffffffffffffffffffffffffffffffff166108fc829081150290604051600060405180830381858888f19350505050158015610cbb573d6000803e3d6000fd5b508273ffffffffffffffffffffffffffffffffffffffff166108fc828760400151039081150290604051600060405180830381858888f19350505050158015610d08573d6000803e3d6000fd5b5060668881548110610d1657fe5b9060005260206000209060050201600080820160006101000a81549073ffffffffffffffffffffffffffffffffffffffff02191690556001820160006101000a81549073ffffffffffffffffffffffffffffffffffffffff021916905560028201600090556003820160009055600482016000905550506001606960008282540392505081905550846040015160676000876000015173ffffffffffffffffffffffffffffffffffffffff1673ffffffffffffffffffffffffffffffffffffffff168152602001908152602001600020600082825403925050819055508460400151606860003373ffffffffffffffffffffffffffffffffffffffff1673ffffffffffffffffffffffffffffffffffffffff16815260200190815260200160002060008282540392505081905550846020015173ffffffffffffffffffffffffffffffffffffffff16856000015173ffffffffffffffffffffffffffffffffffffffff167fd5f87625b2215dc8c8ef503c4e0a6ac727680967de19505147772caf1e8222e88a886040015189606001518a608001518d8d604051808781526020018681526020018581526020018481526020018060200180602001838103835285818151815260200191508051906020019080838360005b83811015610f09578082015181840152602081019050610eee565b50505050905090810190601f168015610f365780820380516001836020036101000a031916815260200191505b50838103825284818151815260200191508051906020019080838360005b83811015610f6f578082015181840152602081019050610f54565b50505050905090810190601f168015610f9c5780820380516001836020036101000a031916815260200191505b509850505050505050505060405180910390a35050505050505050565b60003373ffffffffffffffffffffffffffffffffffffffff168273ffffffffffffffffffffffffffffffffffffffff161461103f576040517f08c379a000000000000000000000000000000000000000000000000000000000815260040180806020018281038252602481526020018061241d6024913960400191505060405180910390fd5b606760003373ffffffffffffffffffffffffffffffffffffffff1673ffffffffffffffffffffffffffffffffffffffff168152602001908152602001600020549050919050565b60695481565b611094611f90565b73ffffffffffffffffffffffffffffffffffffffff166110b2611377565b73ffffffffffffffffffffffffffffffffffffffff161461113b576040517f08c379a00000000000000000000000000000000000000000000000000000000081526004018080602001828103825260208152602001807f4f776e61626c653a2063616c6c6572206973206e6f7420746865206f776e657281525060200191505060405180910390fd5b600073ffffffffffffffffffffffffffffffffffffffff16603360009054906101000a900473ffffffffffffffffffffffffffffffffffffffff1673ffffffffffffffffffffffffffffffffffffffff167f8be0079c531659141344cd1fd0a4f28419497f9722a3daafe3b4186f6b6457e060405160405180910390a36000603360006101000a81548173ffffffffffffffffffffffffffffffffffffffff021916908373ffffffffffffffffffffffffffffffffffffffff160217905550565b611204611f90565b73ffffffffffffffffffffffffffffffffffffffff16611222611377565b73ffffffffffffffffffffffffffffffffffffffff16146112ab576040517f08c379a00000000000000000000000000000000000000000000000000000000081526004018080602001828103825260208152602001807f4f776e61626c653a2063616c6c6572206973206e6f7420746865206f776e657281525060200191505060405180910390fd5b80606a819055507f91955c12515f4eb8f1ff79df82d1933ff11b6d3b9a3019c6568840616ec36a74606a546040518082815260200191505060405180910390a150565b606a5481565b6066818154811061130157fe5b90600052602060002090600502016000915090508060000160009054906101000a900473ffffffffffffffffffffffffffffffffffffffff16908060010160009054906101000a900473ffffffffffffffffffffffffffffffffffffffff16908060020154908060030154908060040154905085565b6000603360009054906101000a900473ffffffffffffffffffffffffffffffffffffffff16905090565b600060019054906101000a900460ff16806113c057506113bf611f98565b5b806113d6575060008054906101000a900460ff16155b61142b576040517f08c379a000000000000000000000000000000000000000000000000000000000815260040180806020018281038252602e815260200180612441602e913960400191505060405180910390fd5b60008060019054906101000a900460ff16159050801561147b576001600060016101000a81548160ff02191690831515021790555060016000806101000a81548160ff0219169083151502179055505b611483611fa9565b81606560006101000a81548173ffffffffffffffffffffffffffffffffffffffff021916908373ffffffffffffffffffffffffffffffffffffffff160217905550600a606a8190555080156114ed5760008060016101000a81548160ff0219169083151502179055505b5050565b6000606680549050905090565b600061150861236f565b6066838154811061151557fe5b90600052602060002090600502016040518060a00160405290816000820160009054906101000a900473ffffffffffffffffffffffffffffffffffffffff1673ffffffffffffffffffffffffffffffffffffffff1673ffffffffffffffffffffffffffffffffffffffff1681526020016001820160009054906101000a900473ffffffffffffffffffffffffffffffffffffffff1673ffffffffffffffffffffffffffffffffffffffff1673ffffffffffffffffffffffffffffffffffffffff16815260200160028201548152602001600382015481526020016004820154815250509050620151808160600151028160800151014210915050919050565b61161c61236f565b6066828154811061162957fe5b90600052602060002090600502016040518060a00160405290816000820160009054906101000a900473ffffffffffffffffffffffffffffffffffffffff1673ffffffffffffffffffffffffffffffffffffffff1673ffffffffffffffffffffffffffffffffffffffff1681526020016001820160009054906101000a900473ffffffffffffffffffffffffffffffffffffffff1673ffffffffffffffffffffffffffffffffffffffff1673ffffffffffffffffffffffffffffffffffffffff168152602001600282015481526020016003820154815260200160048201548152505090503373ffffffffffffffffffffffffffffffffffffffff16816000015173ffffffffffffffffffffffffffffffffffffffff1614611796576040517f08c379a000000000000000000000000000000000000000000000000000000000815260040180806020018281038252602481526020018061241d6024913960400191505060405180910390fd5b620151808160600151028160800151014210156117fe576040517f08c379a000000000000000000000000000000000000000000000000000000000815260040180806020018281038252603681526020018061246f6036913960400191505060405180910390fd5b3373ffffffffffffffffffffffffffffffffffffffff166108fc82604001519081150290604051600060405180830381858888f19350505050158015611848573d6000803e3d6000fd5b506066828154811061185657fe5b9060005260206000209060050201600080820160006101000a81549073ffffffffffffffffffffffffffffffffffffffff02191690556001820160006101000a81549073ffffffffffffffffffffffffffffffffffffffff0219169055600282016000905560038201600090556004820160009055505060016069600082825403925050819055508060400151606760003373ffffffffffffffffffffffffffffffffffffffff1673ffffffffffffffffffffffffffffffffffffffff16815260200190815260200160002060008282540392505081905550806040015160686000836020015173ffffffffffffffffffffffffffffffffffffffff1673ffffffffffffffffffffffffffffffffffffffff16815260200190815260200160002060008282540392505081905550806020015173ffffffffffffffffffffffffffffffffffffffff16816000015173ffffffffffffffffffffffffffffffffffffffff167fa59556698ed1cec4208c027a72f38f8304fda166004a4b213383a23999a0cac4848460400151856060015186608001516040518085815260200184815260200183815260200182815260200194505050505060405180910390a35050565b600073ffffffffffffffffffffffffffffffffffffffff168273ffffffffffffffffffffffffffffffffffffffff161415611abc576040517f08c379a000000000000000000000000000000000000000000000000000000000815260040180806020018281038252601b8152602001807f412076616c69642061646472657373206973207265717569726564000000000081525060200191505060405180910390fd5b60003411611b15576040517f08c379a00000000000000000000000000000000000000000000000000000000081526004018080602001828103825260228152602001806124a56022913960400191505060405180910390fd5b611b1d61236f565b6040518060a001604052803373ffffffffffffffffffffffffffffffffffffffff1681526020018473ffffffffffffffffffffffffffffffffffffffff168152602001348152602001838152602001428152509050606681908060018154018082558091505060019003906000526020600020906005020160009091909190915060008201518160000160006101000a81548173ffffffffffffffffffffffffffffffffffffffff021916908373ffffffffffffffffffffffffffffffffffffffff16021790555060208201518160010160006101000a81548173ffffffffffffffffffffffffffffffffffffffff021916908373ffffffffffffffffffffffffffffffffffffffff160217905550604082015181600201556060820151816003015560808201518160040155505060006001606680549050039050600160696000828254019250508190555034606760003373ffffffffffffffffffffffffffffffffffffffff1673ffffffffffffffffffffffffffffffffffffffff1681526020019081526020016000206000828254019250508190555034606860008673ffffffffffffffffffffffffffffffffffffffff1673ffffffffffffffffffffffffffffffffffffffff16815260200190815260200160002060008282540192505081905550816020015173ffffffffffffffffffffffffffffffffffffffff16826000015173ffffffffffffffffffffffffffffffffffffffff167f5b55842672aaa440d337fd65bb0154c3a00b886297daf13f4f92aea626a9300b838560400151866060015187608001516040518085815260200184815260200183815260200182815260200194505050505060405180910390a350505050565b611da3611f90565b73ffffffffffffffffffffffffffffffffffffffff16611dc1611377565b73ffffffffffffffffffffffffffffffffffffffff1614611e4a576040517f08c379a00000000000000000000000000000000000000000000000000000000081526004018080602001828103825260208152602001807f4f776e61626c653a2063616c6c6572206973206e6f7420746865206f776e657281525060200191505060405180910390fd5b600073ffffffffffffffffffffffffffffffffffffffff168173ffffffffffffffffffffffffffffffffffffffff161415611ed0576040517f08c379a00000000000000000000000000000000000000000000000000000000081526004018080602001828103825260268152602001806123f76026913960400191505060405180910390fd5b8073ffffffffffffffffffffffffffffffffffffffff16603360009054906101000a900473ffffffffffffffffffffffffffffffffffffffff1673ffffffffffffffffffffffffffffffffffffffff167f8be0079c531659141344cd1fd0a4f28419497f9722a3daafe3b4186f6b6457e060405160405180910390a380603360006101000a81548173ffffffffffffffffffffffffffffffffffffffff021916908373ffffffffffffffffffffffffffffffffffffffff16021790555050565b600033905090565b6000611fa3306120b7565b15905090565b600060019054906101000a900460ff1680611fc85750611fc7611f98565b5b80611fde575060008054906101000a900460ff16155b612033576040517f08c379a000000000000000000000000000000000000000000000000000000000815260040180806020018281038252602e815260200180612441602e913960400191505060405180910390fd5b60008060019054906101000a900460ff161590508015612083576001600060016101000a81548160ff02191690831515021790555060016000806101000a81548160ff0219169083151502179055505b61208b6120ca565b6120936121c8565b80156120b45760008060016101000a81548160ff0219169083151502179055505b50565b600080823b905060008111915050919050565b600060019054906101000a900460ff16806120e957506120e8611f98565b5b806120ff575060008054906101000a900460ff16155b612154576040517f08c379a000000000000000000000000000000000000000000000000000000000815260040180806020018281038252602e815260200180612441602e913960400191505060405180910390fd5b60008060019054906101000a900460ff1615905080156121a4576001600060016101000a81548160ff02191690831515021790555060016000806101000a81548160ff0219169083151502179055505b80156121c55760008060016101000a81548160ff0219169083151502179055505b50565b600060019054906101000a900460ff16806121e757506121e6611f98565b5b806121fd575060008054906101000a900460ff16155b612252576040517f08c379a000000000000000000000000000000000000000000000000000000000815260040180806020018281038252602e815260200180612441602e913960400191505060405180910390fd5b60008060019054906101000a900460ff1615905080156122a2576001600060016101000a81548160ff02191690831515021790555060016000806101000a81548160ff0219169083151502179055505b60006122ac611f90565b905080603360006101000a81548173ffffffffffffffffffffffffffffffffffffffff021916908373ffffffffffffffffffffffffffffffffffffffff1602179055508073ffffffffffffffffffffffffffffffffffffffff16600073ffffffffffffffffffffffffffffffffffffffff167f8be0079c531659141344cd1fd0a4f28419497f9722a3daafe3b4186f6b6457e060405160405180910390a350801561236c5760008060016101000a81548160ff0219169083151502179055505b50565b6040518060a00160405280600073ffffffffffffffffffffffffffffffffffffffff168152602001600073ffffffffffffffffffffffffffffffffffffffff168152602001600081526020016000815260200160008152509056fe42616c616e63652073686f756c642062652067726561746572207468616e20726571756573742070726963654f776e61626c653a206e6577206f776e657220697320746865207a65726f2061646472657373596f7520617265206e6f7420746865206f776e6572206f66207468652072657175657374496e697469616c697a61626c653a20636f6e747261637420697320616c726561647920696e697469616c697a6564596f75206d75737420776169742074686520726573706f6e73652074696d6520746f2064656c6574652074686973207265717565737453656e7420616d6f756e74206d7573742062652067726561746572207468616e2030596f7520617265206e6f742074686520726563697069656e74206f66207468652072657175657374a26469706673582212204dec2af1744d6dfa9a37b549ac685f0732fb0675c575630f852968f1cd2333fe64736f6c63430007000033",
  "linkReferences": {},
  "deployedLinkReferences": {}
}